{
  "contractName": "Crowdfunding",
  "abi": [
    {
      "inputs": [
        {
          "internalType": "string",
          "name": "campaingName",
          "type": "string"
        },
        {
          "internalType": "uint256",
          "name": "targetAmountEth",
          "type": "uint256"
        },
        {
          "internalType": "uint256",
          "name": "durationInMin",
          "type": "uint256"
        },
        {
          "internalType": "address payable",
          "name": "beneficiaryAddress",
          "type": "address"
        }
      ],
      "stateMutability": "nonpayable",
      "type": "constructor"
    },
    {
      "anonymous": false,
      "inputs": [
        {
          "indexed": false,
          "internalType": "address",
          "name": "addr",
          "type": "address"
        },
        {
          "indexed": false,
          "internalType": "uint256",
          "name": "totalCollected",
          "type": "uint256"
        },
        {
          "indexed": false,
          "internalType": "bool",
          "name": "succeeded",
          "type": "bool"
        }
      ],
      "name": "CampaignFinished",
      "type": "event"
    },
    {
      "anonymous": false,
      "inputs": [
        {
          "indexed": true,
          "internalType": "address",
          "name": "previousOwner",
          "type": "address"
        },
        {
          "indexed": true,
          "internalType": "address",
          "name": "newOwner",
          "type": "address"
        }
      ],
      "name": "OwnershipTransferred",
      "type": "event"
    },
    {
      "inputs": [
        {
          "internalType": "address",
          "name": "",
          "type": "address"
        }
      ],
      "name": "amounts",
      "outputs": [
        {
          "internalType": "uint256",
          "name": "",
          "type": "uint256"
        }
      ],
      "stateMutability": "view",
      "type": "function",
      "constant": true
    },
    {
      "inputs": [],
      "name": "beneficiary",
      "outputs": [
        {
          "internalType": "address payable",
          "name": "",
          "type": "address"
        }
      ],
      "stateMutability": "view",
      "type": "function",
      "constant": true
    },
    {
      "inputs": [],
      "name": "collected",
      "outputs": [
        {
          "internalType": "bool",
          "name": "",
          "type": "bool"
        }
      ],
      "stateMutability": "view",
      "type": "function",
      "constant": true
    },
    {
      "inputs": [],
      "name": "fundingDeadline",
      "outputs": [
        {
          "internalType": "uint256",
          "name": "",
          "type": "uint256"
        }
      ],
      "stateMutability": "view",
      "type": "function",
      "constant": true
    },
    {
      "inputs": [],
      "name": "name",
      "outputs": [
        {
          "internalType": "string",
          "name": "",
          "type": "string"
        }
      ],
      "stateMutability": "view",
      "type": "function",
      "constant": true
    },
    {
      "inputs": [],
      "name": "owner",
      "outputs": [
        {
          "internalType": "address",
          "name": "",
          "type": "address"
        }
      ],
      "stateMutability": "view",
      "type": "function",
      "constant": true
    },
    {
      "inputs": [],
      "name": "renounceOwnership",
      "outputs": [],
      "stateMutability": "nonpayable",
      "type": "function"
    },
    {
      "inputs": [],
      "name": "state",
      "outputs": [
        {
          "internalType": "enum Crowdfunding.State",
          "name": "",
          "type": "uint8"
        }
      ],
      "stateMutability": "view",
      "type": "function",
      "constant": true
    },
    {
      "inputs": [],
      "name": "targetAmount",
      "outputs": [
        {
          "internalType": "uint256",
          "name": "",
          "type": "uint256"
        }
      ],
      "stateMutability": "view",
      "type": "function",
      "constant": true
    },
    {
      "inputs": [
        {
          "internalType": "address",
          "name": "newOwner",
          "type": "address"
        }
      ],
      "name": "transferOwnership",
      "outputs": [],
      "stateMutability": "nonpayable",
      "type": "function"
    },
    {
      "stateMutability": "payable",
      "type": "receive",
      "payable": true
    },
    {
      "inputs": [],
      "name": "cancelCrowdfunding",
      "outputs": [],
      "stateMutability": "nonpayable",
      "type": "function"
    },
    {
      "inputs": [],
      "name": "finishCrowdfunding",
      "outputs": [],
      "stateMutability": "nonpayable",
      "type": "function"
    },
    {
      "inputs": [],
      "name": "collect",
      "outputs": [],
      "stateMutability": "nonpayable",
      "type": "function"
    },
    {
      "inputs": [],
      "name": "withdraw",
      "outputs": [],
      "stateMutability": "nonpayable",
      "type": "function"
    },
    {
      "inputs": [],
      "name": "beforeDeadline",
      "outputs": [
        {
          "internalType": "bool",
          "name": "",
          "type": "bool"
        }
      ],
      "stateMutability": "view",
      "type": "function",
      "constant": true
    },
    {
      "inputs": [],
      "name": "afterDeadline",
      "outputs": [
        {
          "internalType": "bool",
          "name": "",
          "type": "bool"
        }
      ],
      "stateMutability": "view",
      "type": "function",
      "constant": true
    },
    {
      "inputs": [],
      "name": "totalCollected",
      "outputs": [
        {
          "internalType": "uint256",
          "name": "",
          "type": "uint256"
        }
      ],
      "stateMutability": "view",
      "type": "function",
      "constant": true
    }
  ],
  "bytecode": "0x60806040523480156200001157600080fd5b506040516200206d3803806200206d833981810160405281019062000037919062000629565b620000576200004b620001d260201b60201c565b620001da60201b60201c565b8360019081620000689190620008fb565b50670de0b6b3a7640000836200007f919062000a11565b6002819055508173__Utils_________________________________63529b380f90916040518263ffffffff1660e01b8152600401620000c0919062000a6d565b602060405180830381865af4158015620000de573d6000803e3d6000fd5b505050506040513d601f19601f8201168201806040525081019062000104919062000a8a565b620001146200029e60201b60201c565b62000120919062000abc565b60038190555080600460006101000a81548173ffffffffffffffffffffffffffffffffffffffff021916908373ffffffffffffffffffffffffffffffffffffffff1602179055506000600460146101000a81548160ff0219169083600381111562000190576200018f62000af7565b5b0217905550620001c8600460009054906101000a900473ffffffffffffffffffffffffffffffffffffffff16620002a660201b60201c565b5050505062000c41565b600033905090565b60008060009054906101000a900473ffffffffffffffffffffffffffffffffffffffff169050816000806101000a81548173ffffffffffffffffffffffffffffffffffffffff021916908373ffffffffffffffffffffffffffffffffffffffff1602179055508173ffffffffffffffffffffffffffffffffffffffff168173ffffffffffffffffffffffffffffffffffffffff167f8be0079c531659141344cd1fd0a4f28419497f9722a3daafe3b4186f6b6457e060405160405180910390a35050565b600042905090565b620002b66200033c60201b60201c565b600073ffffffffffffffffffffffffffffffffffffffff168173ffffffffffffffffffffffffffffffffffffffff160362000328576040517f08c379a00000000000000000000000000000000000000000000000000000000081526004016200031f9062000bad565b60405180910390fd5b6200033981620001da60201b60201c565b50565b6200034c620001d260201b60201c565b73ffffffffffffffffffffffffffffffffffffffff1662000372620003cd60201b60201c565b73ffffffffffffffffffffffffffffffffffffffff1614620003cb576040517f08c379a0000000000000000000000000000000000000000000000000000000008152600401620003c29062000c1f565b60405180910390fd5b565b60008060009054906101000a900473ffffffffffffffffffffffffffffffffffffffff16905090565b6000604051905090565b600080fd5b600080fd5b600080fd5b600080fd5b6000601f19601f8301169050919050565b7f4e487b7100000000000000000000000000000000000000000000000000000000600052604160045260246000fd5b6200045f8262000414565b810181811067ffffffffffffffff8211171562000481576200048062000425565b5b80604052505050565b600062000496620003f6565b9050620004a4828262000454565b919050565b600067ffffffffffffffff821115620004c757620004c662000425565b5b620004d28262000414565b9050602081019050919050565b60005b83811015620004ff578082015181840152602081019050620004e2565b60008484015250505050565b6000620005226200051c84620004a9565b6200048a565b9050828152602081018484840111156200054157620005406200040f565b5b6200054e848285620004df565b509392505050565b600082601f8301126200056e576200056d6200040a565b5b8151620005808482602086016200050b565b91505092915050565b6000819050919050565b6200059e8162000589565b8114620005aa57600080fd5b50565b600081519050620005be8162000593565b92915050565b600073ffffffffffffffffffffffffffffffffffffffff82169050919050565b6000620005f182620005c4565b9050919050565b6200060381620005e4565b81146200060f57600080fd5b50565b6000815190506200062381620005f8565b92915050565b6000806000806080858703121562000646576200064562000400565b5b600085015167ffffffffffffffff81111562000667576200066662000405565b5b620006758782880162000556565b94505060206200068887828801620005ad565b93505060406200069b87828801620005ad565b9250506060620006ae8782880162000612565b91505092959194509250565b600081519050919050565b7f4e487b7100000000000000000000000000000000000000000000000000000000600052602260045260246000fd5b600060028204905060018216806200070d57607f821691505b602082108103620007235762000722620006c5565b5b50919050565b60008190508160005260206000209050919050565b60006020601f8301049050919050565b600082821b905092915050565b6000600883026200078d7fffffffffffffffffffffffffffffffffffffffffffffffffffffffffffffffff826200074e565b6200079986836200074e565b95508019841693508086168417925050509392505050565b6000819050919050565b6000620007dc620007d6620007d08462000589565b620007b1565b62000589565b9050919050565b6000819050919050565b620007f883620007bb565b620008106200080782620007e3565b8484546200075b565b825550505050565b600090565b6200082762000818565b62000834818484620007ed565b505050565b5b818110156200085c57620008506000826200081d565b6001810190506200083a565b5050565b601f821115620008ab57620008758162000729565b62000880846200073e565b8101602085101562000890578190505b620008a86200089f856200073e565b83018262000839565b50505b505050565b600082821c905092915050565b6000620008d060001984600802620008b0565b1980831691505092915050565b6000620008eb8383620008bd565b9150826002028217905092915050565b6200090682620006ba565b67ffffffffffffffff81111562000922576200092162000425565b5b6200092e8254620006f4565b6200093b82828562000860565b600060209050601f8311600181146200097357600084156200095e578287015190505b6200096a8582620008dd565b865550620009da565b601f198416620009838662000729565b60005b82811015620009ad5784890151825560018201915060208501945060208101905062000986565b86831015620009cd5784890151620009c9601f891682620008bd565b8355505b6001600288020188555050505b505050505050565b7f4e487b7100000000000000000000000000000000000000000000000000000000600052601160045260246000fd5b600062000a1e8262000589565b915062000a2b8362000589565b925082820262000a3b8162000589565b9150828204841483151762000a555762000a54620009e2565b5b5092915050565b62000a678162000589565b82525050565b600060208201905062000a84600083018462000a5c565b92915050565b60006020828403121562000aa35762000aa262000400565b5b600062000ab384828501620005ad565b91505092915050565b600062000ac98262000589565b915062000ad68362000589565b925082820190508082111562000af15762000af0620009e2565b5b92915050565b7f4e487b7100000000000000000000000000000000000000000000000000000000600052602160045260246000fd5b600082825260208201905092915050565b7f4f776e61626c653a206e6577206f776e657220697320746865207a65726f206160008201527f6464726573730000000000000000000000000000000000000000000000000000602082015250565b600062000b9560268362000b26565b915062000ba28262000b37565b604082019050919050565b6000602082019050818103600083015262000bc88162000b86565b9050919050565b7f4f776e61626c653a2063616c6c6572206973206e6f7420746865206f776e6572600082015250565b600062000c0760208362000b26565b915062000c148262000bcf565b602082019050919050565b6000602082019050818103600083015262000c3a8162000bf8565b9050919050565b61141c8062000c516000396000f3fe6080604052600436106101025760003560e01c806384bcefd411610095578063a84669de11610064578063a84669de14610428578063c19d93fb1461043f578063e29eb8361461046a578063e522538114610495578063f2fde38b146104ac57610249565b806384bcefd4146103905780638da5cb5b146103bb578063953b8fb8146103e6578063a4fac5271461041157610249565b806368bc0041116100d157806368bc0041146102f8578063715018a614610323578063796b23bb1461033a5780637ff758021461036557610249565b806306fdde031461024e57806338af3eed146102795780633ccfd60b146102a457806355a3b2c1146102bb57610249565b3661024957600080600381111561011c5761011b610d9a565b5b600460149054906101000a900460ff16600381111561013e5761013d610d9a565b5b1461017e576040517f08c379a000000000000000000000000000000000000000000000000000000000815260040161017590610e26565b60405180910390fd5b6101866104d5565b6101c5576040517f08c379a00000000000000000000000000000000000000000000000000000000081526004016101bc90610e92565b60405180910390fd5b34600560003373ffffffffffffffffffffffffffffffffffffffff1673ffffffffffffffffffffffffffffffffffffffff16815260200190815260200160002060008282546102149190610eeb565b925050819055506002546102266104e8565b10610247576001600660006101000a81548160ff0219169083151502179055505b005b600080fd5b34801561025a57600080fd5b506102636104f0565b6040516102709190610f9e565b60405180910390f35b34801561028557600080fd5b5061028e61057e565b60405161029b9190611001565b60405180910390f35b3480156102b057600080fd5b506102b96105a4565b005b3480156102c757600080fd5b506102e260048036038101906102dd919061105f565b610771565b6040516102ef919061109b565b60405180910390f35b34801561030457600080fd5b5061030d6104d5565b60405161031a91906110d1565b60405180910390f35b34801561032f57600080fd5b50610338610789565b005b34801561034657600080fd5b5061034f61079d565b60405161035c919061109b565b60405180910390f35b34801561037157600080fd5b5061037a6107a3565b60405161038791906110d1565b60405180910390f35b34801561039c57600080fd5b506103a56107b3565b6040516103b291906110d1565b60405180910390f35b3480156103c757600080fd5b506103d06107c6565b6040516103dd91906110fb565b60405180910390f35b3480156103f257600080fd5b506103fb6107ef565b604051610408919061109b565b60405180910390f35b34801561041d57600080fd5b506104266107f5565b005b34801561043457600080fd5b5061043d6108e9565b005b34801561044b57600080fd5b50610454610a73565b604051610461919061115e565b60405180910390f35b34801561047657600080fd5b5061047f6104e8565b60405161048c919061109b565b60405180910390f35b3480156104a157600080fd5b506104aa610a86565b005b3480156104b857600080fd5b506104d360048036038101906104ce919061105f565b610bc5565b005b60006003546104e2610c48565b10905090565b600047905090565b600180546104fd906111a8565b80601f0160208091040260200160405190810160405280929190818152602001828054610529906111a8565b80156105765780601f1061054b57610100808354040283529160200191610576565b820191906000526020600020905b81548152906001019060200180831161055957829003601f168201915b505050505081565b600460009054906101000a900473ffffffffffffffffffffffffffffffffffffffff1681565b60018060038111156105b9576105b8610d9a565b5b600460149054906101000a900460ff1660038111156105db576105da610d9a565b5b1461061b576040517f08c379a000000000000000000000000000000000000000000000000000000000815260040161061290610e26565b60405180910390fd5b6000600560003373ffffffffffffffffffffffffffffffffffffffff1673ffffffffffffffffffffffffffffffffffffffff168152602001908152602001600020541161069d576040517f08c379a000000000000000000000000000000000000000000000000000000000815260040161069490611225565b60405180910390fd5b6000600560003373ffffffffffffffffffffffffffffffffffffffff1673ffffffffffffffffffffffffffffffffffffffff1681526020019081526020016000205490506000600560003373ffffffffffffffffffffffffffffffffffffffff1673ffffffffffffffffffffffffffffffffffffffff168152602001908152602001600020819055503373ffffffffffffffffffffffffffffffffffffffff166108fc829081150290604051600060405180830381858888f1935050505015801561076c573d6000803e3d6000fd5b505050565b60056020528060005260406000206000915090505481565b610791610c50565b61079b6000610cce565b565b60035481565b60006107ad6104d5565b15905090565b600660009054906101000a900460ff1681565b60008060009054906101000a900473ffffffffffffffffffffffffffffffffffffffff16905090565b60025481565b600080600381111561080a57610809610d9a565b5b600460149054906101000a900460ff16600381111561082c5761082b610d9a565b5b1461086c576040517f08c379a000000000000000000000000000000000000000000000000000000000815260040161086390610e26565b60405180910390fd5b610874610c50565b61087c6104d5565b6108bb576040517f08c379a00000000000000000000000000000000000000000000000000000000081526004016108b290610e92565b60405180910390fd5b6001600460146101000a81548160ff021916908360038111156108e1576108e0610d9a565b5b021790555050565b60008060038111156108fe576108fd610d9a565b5b600460149054906101000a900460ff1660038111156109205761091f610d9a565b5b14610960576040517f08c379a000000000000000000000000000000000000000000000000000000000815260040161095790610e26565b60405180910390fd5b610968610c50565b6109706107a3565b6109af576040517f08c379a00000000000000000000000000000000000000000000000000000000081526004016109a690611291565b60405180910390fd5b600660009054906101000a900460ff166109f3576001600460146101000a81548160ff021916908360038111156109e9576109e8610d9a565b5b0217905550610a1f565b6002600460146101000a81548160ff02191690836003811115610a1957610a18610d9a565b5b02179055505b7f6fa7e87ebbd87ed4f1c40bba63144f68fd2bb022fb748ab3b61b5411c39bd47430610a496104e8565b600660009054906101000a900460ff16604051610a68939291906112b1565b60405180910390a150565b600460149054906101000a900460ff1681565b6002806003811115610a9b57610a9a610d9a565b5b600460149054906101000a900460ff166003811115610abd57610abc610d9a565b5b14610afd576040517f08c379a0000000000000000000000000000000000000000000000000000000008152600401610af490610e26565b60405180910390fd5b6000600460009054906101000a900473ffffffffffffffffffffffffffffffffffffffff1673ffffffffffffffffffffffffffffffffffffffff166108fc610b436104e8565b9081150290604051600060405180830381858888f1935050505090508015610b95576003600460146101000a81548160ff02191690836003811115610b8b57610b8a610d9a565b5b0217905550610bc1565b6001600460146101000a81548160ff02191690836003811115610bbb57610bba610d9a565b5b02179055505b5050565b610bcd610c50565b600073ffffffffffffffffffffffffffffffffffffffff168173ffffffffffffffffffffffffffffffffffffffff1603610c3c576040517f08c379a0000000000000000000000000000000000000000000000000000000008152600401610c339061135a565b60405180910390fd5b610c4581610cce565b50565b600042905090565b610c58610d92565b73ffffffffffffffffffffffffffffffffffffffff16610c766107c6565b73ffffffffffffffffffffffffffffffffffffffff1614610ccc576040517f08c379a0000000000000000000000000000000000000000000000000000000008152600401610cc3906113c6565b60405180910390fd5b565b60008060009054906101000a900473ffffffffffffffffffffffffffffffffffffffff169050816000806101000a81548173ffffffffffffffffffffffffffffffffffffffff021916908373ffffffffffffffffffffffffffffffffffffffff1602179055508173ffffffffffffffffffffffffffffffffffffffff168173ffffffffffffffffffffffffffffffffffffffff167f8be0079c531659141344cd1fd0a4f28419497f9722a3daafe3b4186f6b6457e060405160405180910390a35050565b600033905090565b7f4e487b7100000000000000000000000000000000000000000000000000000000600052602160045260246000fd5b600082825260208201905092915050565b7f496e636f72726563742063726f776466756e64696e6720737461746500000000600082015250565b6000610e10601c83610dc9565b9150610e1b82610dda565b602082019050919050565b60006020820190508181036000830152610e3f81610e03565b9050919050565b7f446561646c696e65206861732070617373656400000000000000000000000000600082015250565b6000610e7c601383610dc9565b9150610e8782610e46565b602082019050919050565b60006020820190508181036000830152610eab81610e6f565b9050919050565b6000819050919050565b7f4e487b7100000000000000000000000000000000000000000000000000000000600052601160045260246000fd5b6000610ef682610eb2565b9150610f0183610eb2565b9250828201905080821115610f1957610f18610ebc565b5b92915050565b600081519050919050565b60005b83811015610f48578082015181840152602081019050610f2d565b60008484015250505050565b6000601f19601f8301169050919050565b6000610f7082610f1f565b610f7a8185610dc9565b9350610f8a818560208601610f2a565b610f9381610f54565b840191505092915050565b60006020820190508181036000830152610fb88184610f65565b905092915050565b600073ffffffffffffffffffffffffffffffffffffffff82169050919050565b6000610feb82610fc0565b9050919050565b610ffb81610fe0565b82525050565b60006020820190506110166000830184610ff2565b92915050565b600080fd5b600061102c82610fc0565b9050919050565b61103c81611021565b811461104757600080fd5b50565b60008135905061105981611033565b92915050565b6000602082840312156110755761107461101c565b5b60006110838482850161104a565b91505092915050565b61109581610eb2565b82525050565b60006020820190506110b0600083018461108c565b92915050565b60008115159050919050565b6110cb816110b6565b82525050565b60006020820190506110e660008301846110c2565b92915050565b6110f581611021565b82525050565b600060208201905061111060008301846110ec565b92915050565b6004811061112757611126610d9a565b5b50565b600081905061113882611116565b919050565b60006111488261112a565b9050919050565b6111588161113d565b82525050565b6000602082019050611173600083018461114f565b92915050565b7f4e487b7100000000000000000000000000000000000000000000000000000000600052602260045260246000fd5b600060028204905060018216806111c057607f821691505b6020821081036111d3576111d2611179565b5b50919050565b7f4e6f2066756e647320666f72206163636f756e74000000000000000000000000600082015250565b600061120f601483610dc9565b915061121a826111d9565b602082019050919050565b6000602082019050818103600083015261123e81611202565b9050919050565b7f446561646c696e6520686173206e6f7420706173736564000000000000000000600082015250565b600061127b601783610dc9565b915061128682611245565b602082019050919050565b600060208201905081810360008301526112aa8161126e565b9050919050565b60006060820190506112c660008301866110ec565b6112d3602083018561108c565b6112e060408301846110c2565b949350505050565b7f4f776e61626c653a206e6577206f776e657220697320746865207a65726f206160008201527f6464726573730000000000000000000000000000000000000000000000000000602082015250565b6000611344602683610dc9565b915061134f826112e8565b604082019050919050565b6000602082019050818103600083015261137381611337565b9050919050565b7f4f776e61626c653a2063616c6c6572206973206e6f7420746865206f776e6572600082015250565b60006113b0602083610dc9565b91506113bb8261137a565b602082019050919050565b600060208201905081810360008301526113df816113a3565b905091905056fea2646970667358221220598775c4a54c54e6b332cf10657e276c8d4624ed3fb4eae641f1307e8efe660664736f6c63430008110033",
  "immutableReferences": {},
  "source": "// SPDX-License-Identifier: UNLICENSED\r\npragma solidity ^0.8.0.0;\r\n\r\nimport '@openzeppelin/contracts/access/Ownable.sol';\r\nimport './Utils.sol';\r\n\r\ncontract Crowdfunding is Ownable {\r\n\r\n    using Utils for uint;\r\n\r\n    enum State { Ongoing, Failed, Succeeded, Paidout }\r\n\r\n    event CampaignFinished(\r\n        address addr,\r\n        uint totalCollected,\r\n        bool succeeded\r\n    );\r\n\r\n    string public name;\r\n    uint public targetAmount;\r\n    uint public fundingDeadline;\r\n    address payable public beneficiary;\r\n    State public state;\r\n    mapping(address => uint) public amounts;\r\n    bool public collected;\r\n\r\n    modifier inState(State expectedState) {\r\n        require(state == expectedState, 'Incorrect crowdfunding state');\r\n        _;\r\n    }\r\n\r\n    constructor (\r\n        string memory campaingName,\r\n        uint targetAmountEth, \r\n        uint durationInMin,\r\n        address payable beneficiaryAddress\r\n    ){\r\n        name = campaingName;\r\n        targetAmount = targetAmountEth * 1 ether;\r\n        fundingDeadline = currentTime() + durationInMin.minutesToSeconds();\r\n        beneficiary = beneficiaryAddress;\r\n        state = State.Ongoing;\r\n\r\n        transferOwnership(beneficiary);\r\n    }\r\n\r\n    receive() external payable inState(State.Ongoing) {\r\n        require(beforeDeadline(), 'Deadline has passed');\r\n        amounts[msg.sender] += msg.value;\r\n\r\n        if(totalCollected() >= targetAmount) {\r\n            collected = true;\r\n        }\r\n    }\r\n\r\n    function cancelCrowdfunding() public inState(State.Ongoing) onlyOwner() {\r\n        require(beforeDeadline(), 'Deadline has passed');\r\n\r\n        state = State.Failed;\r\n    }\r\n\r\n    function finishCrowdfunding() public inState(State.Ongoing) onlyOwner() {\r\n        require(afterDeadline(), 'Deadline has not passed');\r\n\r\n        if(!collected) {\r\n            state = State.Failed;\r\n        } else {\r\n            state = State.Succeeded;\r\n        }\r\n\r\n        emit CampaignFinished(address(this), totalCollected(), collected);\r\n    }\r\n\r\n    function collect() public inState(State.Succeeded) {\r\n        bool res = beneficiary.send(totalCollected());        \r\n        if (res) {\r\n          state = State.Paidout;\r\n        } else {\r\n            state = State.Failed;\r\n        }\r\n    }\r\n\r\n    function withdraw() public inState(State.Failed){\r\n        require(amounts[msg.sender] > 0, 'No funds for account');        \r\n        uint contributed = amounts[msg.sender];\r\n        amounts[msg.sender] = 0;\r\n\r\n        payable(msg.sender).transfer(contributed);\r\n    }\r\n\r\n    function beforeDeadline() public view returns (bool) {\r\n        return currentTime() < fundingDeadline;\r\n    }\r\n\r\n    function afterDeadline() public view returns (bool) {\r\n        return !beforeDeadline();\r\n    }\r\n\r\n    function totalCollected() public view returns (uint) {\r\n        return address(this).balance;\r\n    }\r\n \r\n    function currentTime() private view returns (uint) {\r\n        return block.timestamp; // time in seconds\r\n    }\r\n\r\n}",
  "sourcePath": "C:\\github\\dennisdevetter\\solidity_helloworld\\crowdfunding_truffle\\contracts\\Crowdfunding.sol",
  "compiler": {
    "name": "solc",
    "version": "0.8.17+commit.8df45f5f.Emscripten.clang"
  },
  "schemaVersion": "3.4.11",
  "updatedAt": "2023-01-17T19:14:59.302Z",
  "networkType": "ethereum",
  "devdoc": {
    "kind": "dev",
    "methods": {
      "owner()": {
        "details": "Returns the address of the current owner."
      },
      "renounceOwnership()": {
        "details": "Leaves the contract without owner. It will not be possible to call `onlyOwner` functions anymore. Can only be called by the current owner. NOTE: Renouncing ownership will leave the contract without an owner, thereby removing any functionality that is only available to the owner."
      },
      "transferOwnership(address)": {
        "details": "Transfers ownership of the contract to a new account (`newOwner`). Can only be called by the current owner."
      }
    },
    "version": 1
  },
  "userdoc": {
    "kind": "user",
    "methods": {},
    "version": 1
  }
}