{
	"crowdfunding_truffle/contracts/Crowdfunding.sol": {
		"Crowdfunding": {
			"abi": [
				{
					"inputs": [
						{
							"internalType": "string",
							"name": "campaingName",
							"type": "string"
						},
						{
							"internalType": "uint256",
							"name": "targetAmountEth",
							"type": "uint256"
						},
						{
							"internalType": "uint256",
							"name": "durationInMin",
							"type": "uint256"
						},
						{
							"internalType": "address payable",
							"name": "beneficiaryAddress",
							"type": "address"
						}
					],
					"stateMutability": "nonpayable",
					"type": "constructor"
				},
				{
					"inputs": [],
					"name": "beneficiary",
					"outputs": [
						{
							"internalType": "address payable",
							"name": "",
							"type": "address"
						}
					],
					"stateMutability": "view",
					"type": "function"
				},
				{
					"inputs": [],
					"name": "fundingDeadline",
					"outputs": [
						{
							"internalType": "uint256",
							"name": "",
							"type": "uint256"
						}
					],
					"stateMutability": "view",
					"type": "function"
				},
				{
					"inputs": [],
					"name": "name",
					"outputs": [
						{
							"internalType": "string",
							"name": "",
							"type": "string"
						}
					],
					"stateMutability": "view",
					"type": "function"
				},
				{
					"inputs": [],
					"name": "state",
					"outputs": [
						{
							"internalType": "enum Crowdfunding.State",
							"name": "",
							"type": "uint8"
						}
					],
					"stateMutability": "view",
					"type": "function"
				},
				{
					"inputs": [],
					"name": "targetAmount",
					"outputs": [
						{
							"internalType": "uint256",
							"name": "",
							"type": "uint256"
						}
					],
					"stateMutability": "view",
					"type": "function"
				}
			],
			"devdoc": {
				"kind": "dev",
				"methods": {},
				"version": 1
			},
			"evm": {
				"assembly": "    /* \"crowdfunding_truffle/contracts/Crowdfunding.sol\":69:858  contract Crowdfunding {\r... */\n  mstore(0x40, 0x80)\n    /* \"crowdfunding_truffle/contracts/Crowdfunding.sol\":316:734  constructor (\r... */\n  callvalue\n  dup1\n  iszero\n  tag_1\n  jumpi\n  0x00\n  dup1\n  revert\ntag_1:\n  pop\n  mload(0x40)\n  sub(codesize, bytecodeSize)\n  dup1\n  bytecodeSize\n  dup4\n  codecopy\n  dup2\n  dup2\n  add\n  0x40\n  mstore\n  dup2\n  add\n  swap1\n  tag_2\n  swap2\n  swap1\n  tag_3\n  jump\t// in\ntag_2:\n    /* \"crowdfunding_truffle/contracts/Crowdfunding.sol\":496:508  campaingName */\n  dup4\n    /* \"crowdfunding_truffle/contracts/Crowdfunding.sol\":489:493  name */\n  0x00\n    /* \"crowdfunding_truffle/contracts/Crowdfunding.sol\":489:508  name = campaingName */\n  swap1\n  dup1\n  mload\n  swap1\n  0x20\n  add\n  swap1\n  tag_6\n  swap3\n  swap2\n  swap1\n  tag_7\n  jump\t// in\ntag_6:\n  pop\n    /* \"crowdfunding_truffle/contracts/Crowdfunding.sol\":552:559  1 ether */\n  0x0de0b6b3a7640000\n    /* \"crowdfunding_truffle/contracts/Crowdfunding.sol\":534:549  targetAmountEth */\n  dup4\n    /* \"crowdfunding_truffle/contracts/Crowdfunding.sol\":519:531  targetAmount */\n  sload(0x01)\n    /* \"crowdfunding_truffle/contracts/Crowdfunding.sol\":519:549  targetAmount * targetAmountEth */\n  tag_8\n  swap2\n  swap1\n  tag_9\n  jump\t// in\ntag_8:\n    /* \"crowdfunding_truffle/contracts/Crowdfunding.sol\":519:559  targetAmount * targetAmountEth * 1 ether */\n  tag_10\n  swap2\n  swap1\n  tag_9\n  jump\t// in\ntag_10:\n  pop\n    /* \"crowdfunding_truffle/contracts/Crowdfunding.sol\":620:629  1 minutes */\n  0x3c\n    /* \"crowdfunding_truffle/contracts/Crowdfunding.sol\":604:617  durationInMin */\n  dup3\n    /* \"crowdfunding_truffle/contracts/Crowdfunding.sol\":604:629  durationInMin * 1 minutes */\n  tag_11\n  swap2\n  swap1\n  tag_9\n  jump\t// in\ntag_11:\n    /* \"crowdfunding_truffle/contracts/Crowdfunding.sol\":588:601  currentTime() */\n  tag_12\n    /* \"crowdfunding_truffle/contracts/Crowdfunding.sol\":588:599  currentTime */\n  shl(0x20, tag_13)\n    /* \"crowdfunding_truffle/contracts/Crowdfunding.sol\":588:601  currentTime() */\n  0x20\n  shr\n  jump\t// in\ntag_12:\n    /* \"crowdfunding_truffle/contracts/Crowdfunding.sol\":588:629  currentTime() + durationInMin * 1 minutes */\n  tag_14\n  swap2\n  swap1\n  tag_15\n  jump\t// in\ntag_14:\n    /* \"crowdfunding_truffle/contracts/Crowdfunding.sol\":570:585  fundingDeadline */\n  0x02\n    /* \"crowdfunding_truffle/contracts/Crowdfunding.sol\":570:629  fundingDeadline = currentTime() + durationInMin * 1 minutes */\n  dup2\n  swap1\n  sstore\n  pop\n    /* \"crowdfunding_truffle/contracts/Crowdfunding.sol\":676:694  beneficiaryAddress */\n  dup1\n    /* \"crowdfunding_truffle/contracts/Crowdfunding.sol\":662:673  beneficiary */\n  0x03\n  0x00\n    /* \"crowdfunding_truffle/contracts/Crowdfunding.sol\":662:694  beneficiary = beneficiaryAddress */\n  0x0100\n  exp\n  dup2\n  sload\n  dup2\n  0xffffffffffffffffffffffffffffffffffffffff\n  mul\n  not\n  and\n  swap1\n  dup4\n  0xffffffffffffffffffffffffffffffffffffffff\n  and\n  mul\n  or\n  swap1\n  sstore\n  pop\n    /* \"crowdfunding_truffle/contracts/Crowdfunding.sol\":713:726  State.Ongoing */\n  0x00\n    /* \"crowdfunding_truffle/contracts/Crowdfunding.sol\":705:710  state */\n  0x03\n  0x14\n    /* \"crowdfunding_truffle/contracts/Crowdfunding.sol\":705:726  state = State.Ongoing */\n  0x0100\n  exp\n  dup2\n  sload\n  dup2\n  0xff\n  mul\n  not\n  and\n  swap1\n  dup4\n  0x03\n  dup2\n  gt\n  iszero\n  tag_16\n  jumpi\n  tag_17\n  tag_18\n  jump\t// in\ntag_17:\ntag_16:\n  mul\n  or\n  swap1\n  sstore\n  pop\n    /* \"crowdfunding_truffle/contracts/Crowdfunding.sol\":316:734  constructor (\r... */\n  pop\n  pop\n  pop\n  pop\n    /* \"crowdfunding_truffle/contracts/Crowdfunding.sol\":69:858  contract Crowdfunding {\r... */\n  jump(tag_19)\n    /* \"crowdfunding_truffle/contracts/Crowdfunding.sol\":742:853  function currentTime() private view returns (uint) {\r... */\ntag_13:\n    /* \"crowdfunding_truffle/contracts/Crowdfunding.sol\":787:791  uint */\n  0x00\n    /* \"crowdfunding_truffle/contracts/Crowdfunding.sol\":811:826  block.timestamp */\n  timestamp\n    /* \"crowdfunding_truffle/contracts/Crowdfunding.sol\":804:826  return block.timestamp */\n  swap1\n  pop\n    /* \"crowdfunding_truffle/contracts/Crowdfunding.sol\":742:853  function currentTime() private view returns (uint) {\r... */\n  swap1\n  jump\t// out\n    /* \"crowdfunding_truffle/contracts/Crowdfunding.sol\":69:858  contract Crowdfunding {\r... */\ntag_7:\n  dup3\n  dup1\n  sload\n  tag_21\n  swap1\n  tag_22\n  jump\t// in\ntag_21:\n  swap1\n  0x00\n  mstore\n  keccak256(0x00, 0x20)\n  swap1\n  0x1f\n  add\n  0x20\n  swap1\n  div\n  dup2\n  add\n  swap3\n  dup3\n  tag_24\n  jumpi\n  0x00\n  dup6\n  sstore\n  jump(tag_23)\ntag_24:\n  dup3\n  0x1f\n  lt\n  tag_25\n  jumpi\n  dup1\n  mload\n  not(0xff)\n  and\n  dup4\n  dup1\n  add\n  or\n  dup6\n  sstore\n  jump(tag_23)\ntag_25:\n  dup3\n  dup1\n  add\n  0x01\n  add\n  dup6\n  sstore\n  dup3\n  iszero\n  tag_23\n  jumpi\n  swap2\n  dup3\n  add\ntag_26:\n  dup3\n  dup2\n  gt\n  iszero\n  tag_27\n  jumpi\n  dup3\n  mload\n  dup3\n  sstore\n  swap2\n  0x20\n  add\n  swap2\n  swap1\n  0x01\n  add\n  swap1\n  jump(tag_26)\ntag_27:\ntag_23:\n  pop\n  swap1\n  pop\n  tag_28\n  swap2\n  swap1\n  tag_29\n  jump\t// in\ntag_28:\n  pop\n  swap1\n  jump\t// out\ntag_29:\ntag_30:\n  dup1\n  dup3\n  gt\n  iszero\n  tag_31\n  jumpi\n  0x00\n  dup2\n  0x00\n  swap1\n  sstore\n  pop\n  0x01\n  add\n  jump(tag_30)\ntag_31:\n  pop\n  swap1\n  jump\t// out\n    /* \"#utility.yul\":7:428   */\ntag_33:\n    /* \"#utility.yul\":96:101   */\n  0x00\n    /* \"#utility.yul\":121:187   */\n  tag_35\n    /* \"#utility.yul\":137:186   */\n  tag_36\n    /* \"#utility.yul\":179:185   */\n  dup5\n    /* \"#utility.yul\":137:186   */\n  tag_37\n  jump\t// in\ntag_36:\n    /* \"#utility.yul\":121:187   */\n  tag_38\n  jump\t// in\ntag_35:\n    /* \"#utility.yul\":112:187   */\n  swap1\n  pop\n    /* \"#utility.yul\":210:216   */\n  dup3\n    /* \"#utility.yul\":203:208   */\n  dup2\n    /* \"#utility.yul\":196:217   */\n  mstore\n    /* \"#utility.yul\":248:252   */\n  0x20\n    /* \"#utility.yul\":241:246   */\n  dup2\n    /* \"#utility.yul\":237:253   */\n  add\n    /* \"#utility.yul\":286:289   */\n  dup5\n    /* \"#utility.yul\":277:283   */\n  dup5\n    /* \"#utility.yul\":272:275   */\n  dup5\n    /* \"#utility.yul\":268:284   */\n  add\n    /* \"#utility.yul\":265:290   */\n  gt\n    /* \"#utility.yul\":262:374   */\n  iszero\n  tag_39\n  jumpi\n    /* \"#utility.yul\":293:372   */\n  tag_40\n  tag_41\n  jump\t// in\ntag_40:\n    /* \"#utility.yul\":262:374   */\ntag_39:\n    /* \"#utility.yul\":383:422   */\n  tag_42\n    /* \"#utility.yul\":415:421   */\n  dup5\n    /* \"#utility.yul\":410:413   */\n  dup3\n    /* \"#utility.yul\":405:408   */\n  dup6\n    /* \"#utility.yul\":383:422   */\n  tag_43\n  jump\t// in\ntag_42:\n    /* \"#utility.yul\":102:428   */\n  pop\n    /* \"#utility.yul\":7:428   */\n  swap4\n  swap3\n  pop\n  pop\n  pop\n  jump\t// out\n    /* \"#utility.yul\":434:593   */\ntag_44:\n    /* \"#utility.yul\":499:504   */\n  0x00\n    /* \"#utility.yul\":530:536   */\n  dup2\n    /* \"#utility.yul\":524:537   */\n  mload\n    /* \"#utility.yul\":515:537   */\n  swap1\n  pop\n    /* \"#utility.yul\":546:587   */\n  tag_46\n    /* \"#utility.yul\":581:586   */\n  dup2\n    /* \"#utility.yul\":546:587   */\n  tag_47\n  jump\t// in\ntag_46:\n    /* \"#utility.yul\":434:593   */\n  swap3\n  swap2\n  pop\n  pop\n  jump\t// out\n    /* \"#utility.yul\":613:968   */\ntag_48:\n    /* \"#utility.yul\":680:685   */\n  0x00\n    /* \"#utility.yul\":729:732   */\n  dup3\n    /* \"#utility.yul\":722:726   */\n  0x1f\n    /* \"#utility.yul\":714:720   */\n  dup4\n    /* \"#utility.yul\":710:727   */\n  add\n    /* \"#utility.yul\":706:733   */\n  slt\n    /* \"#utility.yul\":696:818   */\n  tag_50\n  jumpi\n    /* \"#utility.yul\":737:816   */\n  tag_51\n  tag_52\n  jump\t// in\ntag_51:\n    /* \"#utility.yul\":696:818   */\ntag_50:\n    /* \"#utility.yul\":847:853   */\n  dup2\n    /* \"#utility.yul\":841:854   */\n  mload\n    /* \"#utility.yul\":872:962   */\n  tag_53\n    /* \"#utility.yul\":958:961   */\n  dup5\n    /* \"#utility.yul\":950:956   */\n  dup3\n    /* \"#utility.yul\":943:947   */\n  0x20\n    /* \"#utility.yul\":935:941   */\n  dup7\n    /* \"#utility.yul\":931:948   */\n  add\n    /* \"#utility.yul\":872:962   */\n  tag_33\n  jump\t// in\ntag_53:\n    /* \"#utility.yul\":863:962   */\n  swap2\n  pop\n    /* \"#utility.yul\":686:968   */\n  pop\n    /* \"#utility.yul\":613:968   */\n  swap3\n  swap2\n  pop\n  pop\n  jump\t// out\n    /* \"#utility.yul\":974:1117   */\ntag_54:\n    /* \"#utility.yul\":1031:1036   */\n  0x00\n    /* \"#utility.yul\":1062:1068   */\n  dup2\n    /* \"#utility.yul\":1056:1069   */\n  mload\n    /* \"#utility.yul\":1047:1069   */\n  swap1\n  pop\n    /* \"#utility.yul\":1078:1111   */\n  tag_56\n    /* \"#utility.yul\":1105:1110   */\n  dup2\n    /* \"#utility.yul\":1078:1111   */\n  tag_57\n  jump\t// in\ntag_56:\n    /* \"#utility.yul\":974:1117   */\n  swap3\n  swap2\n  pop\n  pop\n  jump\t// out\n    /* \"#utility.yul\":1123:2132   */\ntag_3:\n    /* \"#utility.yul\":1238:1244   */\n  0x00\n    /* \"#utility.yul\":1246:1252   */\n  dup1\n    /* \"#utility.yul\":1254:1260   */\n  0x00\n    /* \"#utility.yul\":1262:1268   */\n  dup1\n    /* \"#utility.yul\":1311:1314   */\n  0x80\n    /* \"#utility.yul\":1299:1308   */\n  dup6\n    /* \"#utility.yul\":1290:1297   */\n  dup8\n    /* \"#utility.yul\":1286:1309   */\n  sub\n    /* \"#utility.yul\":1282:1315   */\n  slt\n    /* \"#utility.yul\":1279:1399   */\n  iszero\n  tag_59\n  jumpi\n    /* \"#utility.yul\":1318:1397   */\n  tag_60\n  tag_61\n  jump\t// in\ntag_60:\n    /* \"#utility.yul\":1279:1399   */\ntag_59:\n    /* \"#utility.yul\":1459:1460   */\n  0x00\n    /* \"#utility.yul\":1448:1457   */\n  dup6\n    /* \"#utility.yul\":1444:1461   */\n  add\n    /* \"#utility.yul\":1438:1462   */\n  mload\n    /* \"#utility.yul\":1489:1507   */\n  0xffffffffffffffff\n    /* \"#utility.yul\":1481:1487   */\n  dup2\n    /* \"#utility.yul\":1478:1508   */\n  gt\n    /* \"#utility.yul\":1475:1592   */\n  iszero\n  tag_62\n  jumpi\n    /* \"#utility.yul\":1511:1590   */\n  tag_63\n  tag_64\n  jump\t// in\ntag_63:\n    /* \"#utility.yul\":1475:1592   */\ntag_62:\n    /* \"#utility.yul\":1616:1690   */\n  tag_65\n    /* \"#utility.yul\":1682:1689   */\n  dup8\n    /* \"#utility.yul\":1673:1679   */\n  dup3\n    /* \"#utility.yul\":1662:1671   */\n  dup9\n    /* \"#utility.yul\":1658:1680   */\n  add\n    /* \"#utility.yul\":1616:1690   */\n  tag_48\n  jump\t// in\ntag_65:\n    /* \"#utility.yul\":1606:1690   */\n  swap5\n  pop\n    /* \"#utility.yul\":1409:1700   */\n  pop\n    /* \"#utility.yul\":1739:1741   */\n  0x20\n    /* \"#utility.yul\":1765:1829   */\n  tag_66\n    /* \"#utility.yul\":1821:1828   */\n  dup8\n    /* \"#utility.yul\":1812:1818   */\n  dup3\n    /* \"#utility.yul\":1801:1810   */\n  dup9\n    /* \"#utility.yul\":1797:1819   */\n  add\n    /* \"#utility.yul\":1765:1829   */\n  tag_54\n  jump\t// in\ntag_66:\n    /* \"#utility.yul\":1755:1829   */\n  swap4\n  pop\n    /* \"#utility.yul\":1710:1839   */\n  pop\n    /* \"#utility.yul\":1878:1880   */\n  0x40\n    /* \"#utility.yul\":1904:1968   */\n  tag_67\n    /* \"#utility.yul\":1960:1967   */\n  dup8\n    /* \"#utility.yul\":1951:1957   */\n  dup3\n    /* \"#utility.yul\":1940:1949   */\n  dup9\n    /* \"#utility.yul\":1936:1958   */\n  add\n    /* \"#utility.yul\":1904:1968   */\n  tag_54\n  jump\t// in\ntag_67:\n    /* \"#utility.yul\":1894:1968   */\n  swap3\n  pop\n    /* \"#utility.yul\":1849:1978   */\n  pop\n    /* \"#utility.yul\":2017:2019   */\n  0x60\n    /* \"#utility.yul\":2043:2115   */\n  tag_68\n    /* \"#utility.yul\":2107:2114   */\n  dup8\n    /* \"#utility.yul\":2098:2104   */\n  dup3\n    /* \"#utility.yul\":2087:2096   */\n  dup9\n    /* \"#utility.yul\":2083:2105   */\n  add\n    /* \"#utility.yul\":2043:2115   */\n  tag_44\n  jump\t// in\ntag_68:\n    /* \"#utility.yul\":2033:2115   */\n  swap2\n  pop\n    /* \"#utility.yul\":1988:2125   */\n  pop\n    /* \"#utility.yul\":1123:2132   */\n  swap3\n  swap6\n  swap2\n  swap5\n  pop\n  swap3\n  pop\n  jump\t// out\n    /* \"#utility.yul\":2138:2267   */\ntag_38:\n    /* \"#utility.yul\":2172:2178   */\n  0x00\n    /* \"#utility.yul\":2199:2219   */\n  tag_70\n  tag_71\n  jump\t// in\ntag_70:\n    /* \"#utility.yul\":2189:2219   */\n  swap1\n  pop\n    /* \"#utility.yul\":2228:2261   */\n  tag_72\n    /* \"#utility.yul\":2256:2260   */\n  dup3\n    /* \"#utility.yul\":2248:2254   */\n  dup3\n    /* \"#utility.yul\":2228:2261   */\n  tag_73\n  jump\t// in\ntag_72:\n    /* \"#utility.yul\":2138:2267   */\n  swap2\n  swap1\n  pop\n  jump\t// out\n    /* \"#utility.yul\":2273:2348   */\ntag_71:\n    /* \"#utility.yul\":2306:2312   */\n  0x00\n    /* \"#utility.yul\":2339:2341   */\n  0x40\n    /* \"#utility.yul\":2333:2342   */\n  mload\n    /* \"#utility.yul\":2323:2342   */\n  swap1\n  pop\n    /* \"#utility.yul\":2273:2348   */\n  swap1\n  jump\t// out\n    /* \"#utility.yul\":2354:2662   */\ntag_37:\n    /* \"#utility.yul\":2416:2420   */\n  0x00\n    /* \"#utility.yul\":2506:2524   */\n  0xffffffffffffffff\n    /* \"#utility.yul\":2498:2504   */\n  dup3\n    /* \"#utility.yul\":2495:2525   */\n  gt\n    /* \"#utility.yul\":2492:2548   */\n  iszero\n  tag_76\n  jumpi\n    /* \"#utility.yul\":2528:2546   */\n  tag_77\n  tag_78\n  jump\t// in\ntag_77:\n    /* \"#utility.yul\":2492:2548   */\ntag_76:\n    /* \"#utility.yul\":2566:2595   */\n  tag_79\n    /* \"#utility.yul\":2588:2594   */\n  dup3\n    /* \"#utility.yul\":2566:2595   */\n  tag_80\n  jump\t// in\ntag_79:\n    /* \"#utility.yul\":2558:2595   */\n  swap1\n  pop\n    /* \"#utility.yul\":2650:2654   */\n  0x20\n    /* \"#utility.yul\":2644:2648   */\n  dup2\n    /* \"#utility.yul\":2640:2655   */\n  add\n    /* \"#utility.yul\":2632:2655   */\n  swap1\n  pop\n    /* \"#utility.yul\":2354:2662   */\n  swap2\n  swap1\n  pop\n  jump\t// out\n    /* \"#utility.yul\":2668:2973   */\ntag_15:\n    /* \"#utility.yul\":2708:2711   */\n  0x00\n    /* \"#utility.yul\":2727:2747   */\n  tag_82\n    /* \"#utility.yul\":2745:2746   */\n  dup3\n    /* \"#utility.yul\":2727:2747   */\n  tag_83\n  jump\t// in\ntag_82:\n    /* \"#utility.yul\":2722:2747   */\n  swap2\n  pop\n    /* \"#utility.yul\":2761:2781   */\n  tag_84\n    /* \"#utility.yul\":2779:2780   */\n  dup4\n    /* \"#utility.yul\":2761:2781   */\n  tag_83\n  jump\t// in\ntag_84:\n    /* \"#utility.yul\":2756:2781   */\n  swap3\n  pop\n    /* \"#utility.yul\":2915:2916   */\n  dup3\n    /* \"#utility.yul\":2847:2913   */\n  0xffffffffffffffffffffffffffffffffffffffffffffffffffffffffffffffff\n    /* \"#utility.yul\":2843:2917   */\n  sub\n    /* \"#utility.yul\":2840:2841   */\n  dup3\n    /* \"#utility.yul\":2837:2918   */\n  gt\n    /* \"#utility.yul\":2834:2941   */\n  iszero\n  tag_85\n  jumpi\n    /* \"#utility.yul\":2921:2939   */\n  tag_86\n  tag_87\n  jump\t// in\ntag_86:\n    /* \"#utility.yul\":2834:2941   */\ntag_85:\n    /* \"#utility.yul\":2965:2966   */\n  dup3\n    /* \"#utility.yul\":2962:2963   */\n  dup3\n    /* \"#utility.yul\":2958:2967   */\n  add\n    /* \"#utility.yul\":2951:2967   */\n  swap1\n  pop\n    /* \"#utility.yul\":2668:2973   */\n  swap3\n  swap2\n  pop\n  pop\n  jump\t// out\n    /* \"#utility.yul\":2979:3327   */\ntag_9:\n    /* \"#utility.yul\":3019:3026   */\n  0x00\n    /* \"#utility.yul\":3042:3062   */\n  tag_89\n    /* \"#utility.yul\":3060:3061   */\n  dup3\n    /* \"#utility.yul\":3042:3062   */\n  tag_83\n  jump\t// in\ntag_89:\n    /* \"#utility.yul\":3037:3062   */\n  swap2\n  pop\n    /* \"#utility.yul\":3076:3096   */\n  tag_90\n    /* \"#utility.yul\":3094:3095   */\n  dup4\n    /* \"#utility.yul\":3076:3096   */\n  tag_83\n  jump\t// in\ntag_90:\n    /* \"#utility.yul\":3071:3096   */\n  swap3\n  pop\n    /* \"#utility.yul\":3264:3265   */\n  dup2\n    /* \"#utility.yul\":3196:3262   */\n  0xffffffffffffffffffffffffffffffffffffffffffffffffffffffffffffffff\n    /* \"#utility.yul\":3192:3266   */\n  div\n    /* \"#utility.yul\":3189:3190   */\n  dup4\n    /* \"#utility.yul\":3186:3267   */\n  gt\n    /* \"#utility.yul\":3181:3182   */\n  dup3\n    /* \"#utility.yul\":3174:3183   */\n  iszero\n    /* \"#utility.yul\":3167:3184   */\n  iszero\n    /* \"#utility.yul\":3163:3268   */\n  and\n    /* \"#utility.yul\":3160:3291   */\n  iszero\n  tag_91\n  jumpi\n    /* \"#utility.yul\":3271:3289   */\n  tag_92\n  tag_87\n  jump\t// in\ntag_92:\n    /* \"#utility.yul\":3160:3291   */\ntag_91:\n    /* \"#utility.yul\":3319:3320   */\n  dup3\n    /* \"#utility.yul\":3316:3317   */\n  dup3\n    /* \"#utility.yul\":3312:3321   */\n  mul\n    /* \"#utility.yul\":3301:3321   */\n  swap1\n  pop\n    /* \"#utility.yul\":2979:3327   */\n  swap3\n  swap2\n  pop\n  pop\n  jump\t// out\n    /* \"#utility.yul\":3333:3437   */\ntag_93:\n    /* \"#utility.yul\":3378:3385   */\n  0x00\n    /* \"#utility.yul\":3407:3431   */\n  tag_95\n    /* \"#utility.yul\":3425:3430   */\n  dup3\n    /* \"#utility.yul\":3407:3431   */\n  tag_96\n  jump\t// in\ntag_95:\n    /* \"#utility.yul\":3396:3431   */\n  swap1\n  pop\n    /* \"#utility.yul\":3333:3437   */\n  swap2\n  swap1\n  pop\n  jump\t// out\n    /* \"#utility.yul\":3443:3569   */\ntag_96:\n    /* \"#utility.yul\":3480:3487   */\n  0x00\n    /* \"#utility.yul\":3520:3562   */\n  0xffffffffffffffffffffffffffffffffffffffff\n    /* \"#utility.yul\":3513:3518   */\n  dup3\n    /* \"#utility.yul\":3509:3563   */\n  and\n    /* \"#utility.yul\":3498:3563   */\n  swap1\n  pop\n    /* \"#utility.yul\":3443:3569   */\n  swap2\n  swap1\n  pop\n  jump\t// out\n    /* \"#utility.yul\":3575:3652   */\ntag_83:\n    /* \"#utility.yul\":3612:3619   */\n  0x00\n    /* \"#utility.yul\":3641:3646   */\n  dup2\n    /* \"#utility.yul\":3630:3646   */\n  swap1\n  pop\n    /* \"#utility.yul\":3575:3652   */\n  swap2\n  swap1\n  pop\n  jump\t// out\n    /* \"#utility.yul\":3658:3965   */\ntag_43:\n    /* \"#utility.yul\":3726:3727   */\n  0x00\n    /* \"#utility.yul\":3736:3849   */\ntag_100:\n    /* \"#utility.yul\":3750:3756   */\n  dup4\n    /* \"#utility.yul\":3747:3748   */\n  dup2\n    /* \"#utility.yul\":3744:3757   */\n  lt\n    /* \"#utility.yul\":3736:3849   */\n  iszero\n  tag_102\n  jumpi\n    /* \"#utility.yul\":3835:3836   */\n  dup1\n    /* \"#utility.yul\":3830:3833   */\n  dup3\n    /* \"#utility.yul\":3826:3837   */\n  add\n    /* \"#utility.yul\":3820:3838   */\n  mload\n    /* \"#utility.yul\":3816:3817   */\n  dup2\n    /* \"#utility.yul\":3811:3814   */\n  dup5\n    /* \"#utility.yul\":3807:3818   */\n  add\n    /* \"#utility.yul\":3800:3839   */\n  mstore\n    /* \"#utility.yul\":3772:3774   */\n  0x20\n    /* \"#utility.yul\":3769:3770   */\n  dup2\n    /* \"#utility.yul\":3765:3775   */\n  add\n    /* \"#utility.yul\":3760:3775   */\n  swap1\n  pop\n    /* \"#utility.yul\":3736:3849   */\n  jump(tag_100)\ntag_102:\n    /* \"#utility.yul\":3867:3873   */\n  dup4\n    /* \"#utility.yul\":3864:3865   */\n  dup2\n    /* \"#utility.yul\":3861:3874   */\n  gt\n    /* \"#utility.yul\":3858:3959   */\n  iszero\n  tag_103\n  jumpi\n    /* \"#utility.yul\":3947:3948   */\n  0x00\n    /* \"#utility.yul\":3938:3944   */\n  dup5\n    /* \"#utility.yul\":3933:3936   */\n  dup5\n    /* \"#utility.yul\":3929:3945   */\n  add\n    /* \"#utility.yul\":3922:3949   */\n  mstore\n    /* \"#utility.yul\":3858:3959   */\ntag_103:\n    /* \"#utility.yul\":3707:3965   */\n  pop\n    /* \"#utility.yul\":3658:3965   */\n  pop\n  pop\n  pop\n  jump\t// out\n    /* \"#utility.yul\":3971:4291   */\ntag_22:\n    /* \"#utility.yul\":4015:4021   */\n  0x00\n    /* \"#utility.yul\":4052:4053   */\n  0x02\n    /* \"#utility.yul\":4046:4050   */\n  dup3\n    /* \"#utility.yul\":4042:4054   */\n  div\n    /* \"#utility.yul\":4032:4054   */\n  swap1\n  pop\n    /* \"#utility.yul\":4099:4100   */\n  0x01\n    /* \"#utility.yul\":4093:4097   */\n  dup3\n    /* \"#utility.yul\":4089:4101   */\n  and\n    /* \"#utility.yul\":4120:4138   */\n  dup1\n    /* \"#utility.yul\":4110:4191   */\n  tag_105\n  jumpi\n    /* \"#utility.yul\":4176:4180   */\n  0x7f\n    /* \"#utility.yul\":4168:4174   */\n  dup3\n    /* \"#utility.yul\":4164:4181   */\n  and\n    /* \"#utility.yul\":4154:4181   */\n  swap2\n  pop\n    /* \"#utility.yul\":4110:4191   */\ntag_105:\n    /* \"#utility.yul\":4238:4240   */\n  0x20\n    /* \"#utility.yul\":4230:4236   */\n  dup3\n    /* \"#utility.yul\":4227:4241   */\n  lt\n    /* \"#utility.yul\":4207:4225   */\n  dup2\n    /* \"#utility.yul\":4204:4242   */\n  eq\n    /* \"#utility.yul\":4201:4285   */\n  iszero\n  tag_106\n  jumpi\n    /* \"#utility.yul\":4257:4275   */\n  tag_107\n  tag_108\n  jump\t// in\ntag_107:\n    /* \"#utility.yul\":4201:4285   */\ntag_106:\n    /* \"#utility.yul\":4022:4291   */\n  pop\n    /* \"#utility.yul\":3971:4291   */\n  swap2\n  swap1\n  pop\n  jump\t// out\n    /* \"#utility.yul\":4297:4578   */\ntag_73:\n    /* \"#utility.yul\":4380:4407   */\n  tag_110\n    /* \"#utility.yul\":4402:4406   */\n  dup3\n    /* \"#utility.yul\":4380:4407   */\n  tag_80\n  jump\t// in\ntag_110:\n    /* \"#utility.yul\":4372:4378   */\n  dup2\n    /* \"#utility.yul\":4368:4408   */\n  add\n    /* \"#utility.yul\":4510:4516   */\n  dup2\n    /* \"#utility.yul\":4498:4508   */\n  dup2\n    /* \"#utility.yul\":4495:4517   */\n  lt\n    /* \"#utility.yul\":4474:4492   */\n  0xffffffffffffffff\n    /* \"#utility.yul\":4462:4472   */\n  dup3\n    /* \"#utility.yul\":4459:4493   */\n  gt\n    /* \"#utility.yul\":4456:4518   */\n  or\n    /* \"#utility.yul\":4453:4541   */\n  iszero\n  tag_111\n  jumpi\n    /* \"#utility.yul\":4521:4539   */\n  tag_112\n  tag_78\n  jump\t// in\ntag_112:\n    /* \"#utility.yul\":4453:4541   */\ntag_111:\n    /* \"#utility.yul\":4561:4571   */\n  dup1\n    /* \"#utility.yul\":4557:4559   */\n  0x40\n    /* \"#utility.yul\":4550:4572   */\n  mstore\n    /* \"#utility.yul\":4340:4578   */\n  pop\n    /* \"#utility.yul\":4297:4578   */\n  pop\n  pop\n  jump\t// out\n    /* \"#utility.yul\":4584:4764   */\ntag_87:\n    /* \"#utility.yul\":4632:4709   */\n  0x4e487b7100000000000000000000000000000000000000000000000000000000\n    /* \"#utility.yul\":4629:4630   */\n  0x00\n    /* \"#utility.yul\":4622:4710   */\n  mstore\n    /* \"#utility.yul\":4729:4733   */\n  0x11\n    /* \"#utility.yul\":4726:4727   */\n  0x04\n    /* \"#utility.yul\":4719:4734   */\n  mstore\n    /* \"#utility.yul\":4753:4757   */\n  0x24\n    /* \"#utility.yul\":4750:4751   */\n  0x00\n    /* \"#utility.yul\":4743:4758   */\n  revert\n    /* \"#utility.yul\":4770:4950   */\ntag_18:\n    /* \"#utility.yul\":4818:4895   */\n  0x4e487b7100000000000000000000000000000000000000000000000000000000\n    /* \"#utility.yul\":4815:4816   */\n  0x00\n    /* \"#utility.yul\":4808:4896   */\n  mstore\n    /* \"#utility.yul\":4915:4919   */\n  0x21\n    /* \"#utility.yul\":4912:4913   */\n  0x04\n    /* \"#utility.yul\":4905:4920   */\n  mstore\n    /* \"#utility.yul\":4939:4943   */\n  0x24\n    /* \"#utility.yul\":4936:4937   */\n  0x00\n    /* \"#utility.yul\":4929:4944   */\n  revert\n    /* \"#utility.yul\":4956:5136   */\ntag_108:\n    /* \"#utility.yul\":5004:5081   */\n  0x4e487b7100000000000000000000000000000000000000000000000000000000\n    /* \"#utility.yul\":5001:5002   */\n  0x00\n    /* \"#utility.yul\":4994:5082   */\n  mstore\n    /* \"#utility.yul\":5101:5105   */\n  0x22\n    /* \"#utility.yul\":5098:5099   */\n  0x04\n    /* \"#utility.yul\":5091:5106   */\n  mstore\n    /* \"#utility.yul\":5125:5129   */\n  0x24\n    /* \"#utility.yul\":5122:5123   */\n  0x00\n    /* \"#utility.yul\":5115:5130   */\n  revert\n    /* \"#utility.yul\":5142:5322   */\ntag_78:\n    /* \"#utility.yul\":5190:5267   */\n  0x4e487b7100000000000000000000000000000000000000000000000000000000\n    /* \"#utility.yul\":5187:5188   */\n  0x00\n    /* \"#utility.yul\":5180:5268   */\n  mstore\n    /* \"#utility.yul\":5287:5291   */\n  0x41\n    /* \"#utility.yul\":5284:5285   */\n  0x04\n    /* \"#utility.yul\":5277:5292   */\n  mstore\n    /* \"#utility.yul\":5311:5315   */\n  0x24\n    /* \"#utility.yul\":5308:5309   */\n  0x00\n    /* \"#utility.yul\":5301:5316   */\n  revert\n    /* \"#utility.yul\":5328:5445   */\ntag_52:\n    /* \"#utility.yul\":5437:5438   */\n  0x00\n    /* \"#utility.yul\":5434:5435   */\n  dup1\n    /* \"#utility.yul\":5427:5439   */\n  revert\n    /* \"#utility.yul\":5451:5568   */\ntag_41:\n    /* \"#utility.yul\":5560:5561   */\n  0x00\n    /* \"#utility.yul\":5557:5558   */\n  dup1\n    /* \"#utility.yul\":5550:5562   */\n  revert\n    /* \"#utility.yul\":5574:5691   */\ntag_64:\n    /* \"#utility.yul\":5683:5684   */\n  0x00\n    /* \"#utility.yul\":5680:5681   */\n  dup1\n    /* \"#utility.yul\":5673:5685   */\n  revert\n    /* \"#utility.yul\":5697:5814   */\ntag_61:\n    /* \"#utility.yul\":5806:5807   */\n  0x00\n    /* \"#utility.yul\":5803:5804   */\n  dup1\n    /* \"#utility.yul\":5796:5808   */\n  revert\n    /* \"#utility.yul\":5820:5922   */\ntag_80:\n    /* \"#utility.yul\":5861:5867   */\n  0x00\n    /* \"#utility.yul\":5912:5914   */\n  0x1f\n    /* \"#utility.yul\":5908:5915   */\n  not\n    /* \"#utility.yul\":5903:5905   */\n  0x1f\n    /* \"#utility.yul\":5896:5901   */\n  dup4\n    /* \"#utility.yul\":5892:5906   */\n  add\n    /* \"#utility.yul\":5888:5916   */\n  and\n    /* \"#utility.yul\":5878:5916   */\n  swap1\n  pop\n    /* \"#utility.yul\":5820:5922   */\n  swap2\n  swap1\n  pop\n  jump\t// out\n    /* \"#utility.yul\":5928:6066   */\ntag_47:\n    /* \"#utility.yul\":6009:6041   */\n  tag_123\n    /* \"#utility.yul\":6035:6040   */\n  dup2\n    /* \"#utility.yul\":6009:6041   */\n  tag_93\n  jump\t// in\ntag_123:\n    /* \"#utility.yul\":6002:6007   */\n  dup2\n    /* \"#utility.yul\":5999:6042   */\n  eq\n    /* \"#utility.yul\":5989:6060   */\n  tag_124\n  jumpi\n    /* \"#utility.yul\":6056:6057   */\n  0x00\n    /* \"#utility.yul\":6053:6054   */\n  dup1\n    /* \"#utility.yul\":6046:6058   */\n  revert\n    /* \"#utility.yul\":5989:6060   */\ntag_124:\n    /* \"#utility.yul\":5928:6066   */\n  pop\n  jump\t// out\n    /* \"#utility.yul\":6072:6194   */\ntag_57:\n    /* \"#utility.yul\":6145:6169   */\n  tag_126\n    /* \"#utility.yul\":6163:6168   */\n  dup2\n    /* \"#utility.yul\":6145:6169   */\n  tag_83\n  jump\t// in\ntag_126:\n    /* \"#utility.yul\":6138:6143   */\n  dup2\n    /* \"#utility.yul\":6135:6170   */\n  eq\n    /* \"#utility.yul\":6125:6188   */\n  tag_127\n  jumpi\n    /* \"#utility.yul\":6184:6185   */\n  0x00\n    /* \"#utility.yul\":6181:6182   */\n  dup1\n    /* \"#utility.yul\":6174:6186   */\n  revert\n    /* \"#utility.yul\":6125:6188   */\ntag_127:\n    /* \"#utility.yul\":6072:6194   */\n  pop\n  jump\t// out\n    /* \"crowdfunding_truffle/contracts/Crowdfunding.sol\":69:858  contract Crowdfunding {\r... */\ntag_19:\n  dataSize(sub_0)\n  dup1\n  dataOffset(sub_0)\n  0x00\n  codecopy\n  0x00\n  return\nstop\n\nsub_0: assembly {\n        /* \"crowdfunding_truffle/contracts/Crowdfunding.sol\":69:858  contract Crowdfunding {\r... */\n      mstore(0x40, 0x80)\n      callvalue\n      dup1\n      iszero\n      tag_1\n      jumpi\n      0x00\n      dup1\n      revert\n    tag_1:\n      pop\n      jumpi(tag_2, lt(calldatasize, 0x04))\n      shr(0xe0, calldataload(0x00))\n      dup1\n      0x06fdde03\n      eq\n      tag_3\n      jumpi\n      dup1\n      0x38af3eed\n      eq\n      tag_4\n      jumpi\n      dup1\n      0x796b23bb\n      eq\n      tag_5\n      jumpi\n      dup1\n      0x953b8fb8\n      eq\n      tag_6\n      jumpi\n      dup1\n      0xc19d93fb\n      eq\n      tag_7\n      jumpi\n    tag_2:\n      0x00\n      dup1\n      revert\n        /* \"crowdfunding_truffle/contracts/Crowdfunding.sol\":158:176  string public name */\n    tag_3:\n      tag_8\n      tag_9\n      jump\t// in\n    tag_8:\n      mload(0x40)\n      tag_10\n      swap2\n      swap1\n      tag_11\n      jump\t// in\n    tag_10:\n      mload(0x40)\n      dup1\n      swap2\n      sub\n      swap1\n      return\n        /* \"crowdfunding_truffle/contracts/Crowdfunding.sol\":248:282  address payable public beneficiary */\n    tag_4:\n      tag_12\n      tag_13\n      jump\t// in\n    tag_12:\n      mload(0x40)\n      tag_14\n      swap2\n      swap1\n      tag_15\n      jump\t// in\n    tag_14:\n      mload(0x40)\n      dup1\n      swap2\n      sub\n      swap1\n      return\n        /* \"crowdfunding_truffle/contracts/Crowdfunding.sol\":214:241  uint public fundingDeadline */\n    tag_5:\n      tag_16\n      tag_17\n      jump\t// in\n    tag_16:\n      mload(0x40)\n      tag_18\n      swap2\n      swap1\n      tag_19\n      jump\t// in\n    tag_18:\n      mload(0x40)\n      dup1\n      swap2\n      sub\n      swap1\n      return\n        /* \"crowdfunding_truffle/contracts/Crowdfunding.sol\":183:207  uint public targetAmount */\n    tag_6:\n      tag_20\n      tag_21\n      jump\t// in\n    tag_20:\n      mload(0x40)\n      tag_22\n      swap2\n      swap1\n      tag_19\n      jump\t// in\n    tag_22:\n      mload(0x40)\n      dup1\n      swap2\n      sub\n      swap1\n      return\n        /* \"crowdfunding_truffle/contracts/Crowdfunding.sol\":289:307  State public state */\n    tag_7:\n      tag_23\n      tag_24\n      jump\t// in\n    tag_23:\n      mload(0x40)\n      tag_25\n      swap2\n      swap1\n      tag_26\n      jump\t// in\n    tag_25:\n      mload(0x40)\n      dup1\n      swap2\n      sub\n      swap1\n      return\n        /* \"crowdfunding_truffle/contracts/Crowdfunding.sol\":158:176  string public name */\n    tag_9:\n      0x00\n      dup1\n      sload\n      tag_27\n      swap1\n      tag_28\n      jump\t// in\n    tag_27:\n      dup1\n      0x1f\n      add\n      0x20\n      dup1\n      swap2\n      div\n      mul\n      0x20\n      add\n      mload(0x40)\n      swap1\n      dup2\n      add\n      0x40\n      mstore\n      dup1\n      swap3\n      swap2\n      swap1\n      dup2\n      dup2\n      mstore\n      0x20\n      add\n      dup3\n      dup1\n      sload\n      tag_29\n      swap1\n      tag_28\n      jump\t// in\n    tag_29:\n      dup1\n      iszero\n      tag_30\n      jumpi\n      dup1\n      0x1f\n      lt\n      tag_31\n      jumpi\n      0x0100\n      dup1\n      dup4\n      sload\n      div\n      mul\n      dup4\n      mstore\n      swap2\n      0x20\n      add\n      swap2\n      jump(tag_30)\n    tag_31:\n      dup3\n      add\n      swap2\n      swap1\n      0x00\n      mstore\n      keccak256(0x00, 0x20)\n      swap1\n    tag_32:\n      dup2\n      sload\n      dup2\n      mstore\n      swap1\n      0x01\n      add\n      swap1\n      0x20\n      add\n      dup1\n      dup4\n      gt\n      tag_32\n      jumpi\n      dup3\n      swap1\n      sub\n      0x1f\n      and\n      dup3\n      add\n      swap2\n    tag_30:\n      pop\n      pop\n      pop\n      pop\n      pop\n      dup2\n      jump\t// out\n        /* \"crowdfunding_truffle/contracts/Crowdfunding.sol\":248:282  address payable public beneficiary */\n    tag_13:\n      0x03\n      0x00\n      swap1\n      sload\n      swap1\n      0x0100\n      exp\n      swap1\n      div\n      0xffffffffffffffffffffffffffffffffffffffff\n      and\n      dup2\n      jump\t// out\n        /* \"crowdfunding_truffle/contracts/Crowdfunding.sol\":214:241  uint public fundingDeadline */\n    tag_17:\n      sload(0x02)\n      dup2\n      jump\t// out\n        /* \"crowdfunding_truffle/contracts/Crowdfunding.sol\":183:207  uint public targetAmount */\n    tag_21:\n      sload(0x01)\n      dup2\n      jump\t// out\n        /* \"crowdfunding_truffle/contracts/Crowdfunding.sol\":289:307  State public state */\n    tag_24:\n      0x03\n      0x14\n      swap1\n      sload\n      swap1\n      0x0100\n      exp\n      swap1\n      div\n      0xff\n      and\n      dup2\n      jump\t// out\n        /* \"#utility.yul\":7:149   */\n    tag_34:\n        /* \"#utility.yul\":110:142   */\n      tag_36\n        /* \"#utility.yul\":136:141   */\n      dup2\n        /* \"#utility.yul\":110:142   */\n      tag_37\n      jump\t// in\n    tag_36:\n        /* \"#utility.yul\":105:108   */\n      dup3\n        /* \"#utility.yul\":98:143   */\n      mstore\n        /* \"#utility.yul\":7:149   */\n      pop\n      pop\n      jump\t// out\n        /* \"#utility.yul\":155:296   */\n    tag_38:\n        /* \"#utility.yul\":247:289   */\n      tag_40\n        /* \"#utility.yul\":283:288   */\n      dup2\n        /* \"#utility.yul\":247:289   */\n      tag_41\n      jump\t// in\n    tag_40:\n        /* \"#utility.yul\":242:245   */\n      dup3\n        /* \"#utility.yul\":235:290   */\n      mstore\n        /* \"#utility.yul\":155:296   */\n      pop\n      pop\n      jump\t// out\n        /* \"#utility.yul\":302:666   */\n    tag_42:\n        /* \"#utility.yul\":390:393   */\n      0x00\n        /* \"#utility.yul\":418:457   */\n      tag_44\n        /* \"#utility.yul\":451:456   */\n      dup3\n        /* \"#utility.yul\":418:457   */\n      tag_45\n      jump\t// in\n    tag_44:\n        /* \"#utility.yul\":473:544   */\n      tag_46\n        /* \"#utility.yul\":537:543   */\n      dup2\n        /* \"#utility.yul\":532:535   */\n      dup6\n        /* \"#utility.yul\":473:544   */\n      tag_47\n      jump\t// in\n    tag_46:\n        /* \"#utility.yul\":466:544   */\n      swap4\n      pop\n        /* \"#utility.yul\":553:605   */\n      tag_48\n        /* \"#utility.yul\":598:604   */\n      dup2\n        /* \"#utility.yul\":593:596   */\n      dup6\n        /* \"#utility.yul\":586:590   */\n      0x20\n        /* \"#utility.yul\":579:584   */\n      dup7\n        /* \"#utility.yul\":575:591   */\n      add\n        /* \"#utility.yul\":553:605   */\n      tag_49\n      jump\t// in\n    tag_48:\n        /* \"#utility.yul\":630:659   */\n      tag_50\n        /* \"#utility.yul\":652:658   */\n      dup2\n        /* \"#utility.yul\":630:659   */\n      tag_51\n      jump\t// in\n    tag_50:\n        /* \"#utility.yul\":625:628   */\n      dup5\n        /* \"#utility.yul\":621:660   */\n      add\n        /* \"#utility.yul\":614:660   */\n      swap2\n      pop\n        /* \"#utility.yul\":394:666   */\n      pop\n        /* \"#utility.yul\":302:666   */\n      swap3\n      swap2\n      pop\n      pop\n      jump\t// out\n        /* \"#utility.yul\":672:790   */\n    tag_52:\n        /* \"#utility.yul\":759:783   */\n      tag_54\n        /* \"#utility.yul\":777:782   */\n      dup2\n        /* \"#utility.yul\":759:783   */\n      tag_55\n      jump\t// in\n    tag_54:\n        /* \"#utility.yul\":754:757   */\n      dup3\n        /* \"#utility.yul\":747:784   */\n      mstore\n        /* \"#utility.yul\":672:790   */\n      pop\n      pop\n      jump\t// out\n        /* \"#utility.yul\":796:1050   */\n    tag_15:\n        /* \"#utility.yul\":905:909   */\n      0x00\n        /* \"#utility.yul\":943:945   */\n      0x20\n        /* \"#utility.yul\":932:941   */\n      dup3\n        /* \"#utility.yul\":928:946   */\n      add\n        /* \"#utility.yul\":920:946   */\n      swap1\n      pop\n        /* \"#utility.yul\":956:1043   */\n      tag_57\n        /* \"#utility.yul\":1040:1041   */\n      0x00\n        /* \"#utility.yul\":1029:1038   */\n      dup4\n        /* \"#utility.yul\":1025:1042   */\n      add\n        /* \"#utility.yul\":1016:1022   */\n      dup5\n        /* \"#utility.yul\":956:1043   */\n      tag_34\n      jump\t// in\n    tag_57:\n        /* \"#utility.yul\":796:1050   */\n      swap3\n      swap2\n      pop\n      pop\n      jump\t// out\n        /* \"#utility.yul\":1056:1288   */\n    tag_26:\n        /* \"#utility.yul\":1154:1158   */\n      0x00\n        /* \"#utility.yul\":1192:1194   */\n      0x20\n        /* \"#utility.yul\":1181:1190   */\n      dup3\n        /* \"#utility.yul\":1177:1195   */\n      add\n        /* \"#utility.yul\":1169:1195   */\n      swap1\n      pop\n        /* \"#utility.yul\":1205:1281   */\n      tag_59\n        /* \"#utility.yul\":1278:1279   */\n      0x00\n        /* \"#utility.yul\":1267:1276   */\n      dup4\n        /* \"#utility.yul\":1263:1280   */\n      add\n        /* \"#utility.yul\":1254:1260   */\n      dup5\n        /* \"#utility.yul\":1205:1281   */\n      tag_38\n      jump\t// in\n    tag_59:\n        /* \"#utility.yul\":1056:1288   */\n      swap3\n      swap2\n      pop\n      pop\n      jump\t// out\n        /* \"#utility.yul\":1294:1607   */\n    tag_11:\n        /* \"#utility.yul\":1407:1411   */\n      0x00\n        /* \"#utility.yul\":1445:1447   */\n      0x20\n        /* \"#utility.yul\":1434:1443   */\n      dup3\n        /* \"#utility.yul\":1430:1448   */\n      add\n        /* \"#utility.yul\":1422:1448   */\n      swap1\n      pop\n        /* \"#utility.yul\":1494:1503   */\n      dup2\n        /* \"#utility.yul\":1488:1492   */\n      dup2\n        /* \"#utility.yul\":1484:1504   */\n      sub\n        /* \"#utility.yul\":1480:1481   */\n      0x00\n        /* \"#utility.yul\":1469:1478   */\n      dup4\n        /* \"#utility.yul\":1465:1482   */\n      add\n        /* \"#utility.yul\":1458:1505   */\n      mstore\n        /* \"#utility.yul\":1522:1600   */\n      tag_61\n        /* \"#utility.yul\":1595:1599   */\n      dup2\n        /* \"#utility.yul\":1586:1592   */\n      dup5\n        /* \"#utility.yul\":1522:1600   */\n      tag_42\n      jump\t// in\n    tag_61:\n        /* \"#utility.yul\":1514:1600   */\n      swap1\n      pop\n        /* \"#utility.yul\":1294:1607   */\n      swap3\n      swap2\n      pop\n      pop\n      jump\t// out\n        /* \"#utility.yul\":1613:1835   */\n    tag_19:\n        /* \"#utility.yul\":1706:1710   */\n      0x00\n        /* \"#utility.yul\":1744:1746   */\n      0x20\n        /* \"#utility.yul\":1733:1742   */\n      dup3\n        /* \"#utility.yul\":1729:1747   */\n      add\n        /* \"#utility.yul\":1721:1747   */\n      swap1\n      pop\n        /* \"#utility.yul\":1757:1828   */\n      tag_63\n        /* \"#utility.yul\":1825:1826   */\n      0x00\n        /* \"#utility.yul\":1814:1823   */\n      dup4\n        /* \"#utility.yul\":1810:1827   */\n      add\n        /* \"#utility.yul\":1801:1807   */\n      dup5\n        /* \"#utility.yul\":1757:1828   */\n      tag_52\n      jump\t// in\n    tag_63:\n        /* \"#utility.yul\":1613:1835   */\n      swap3\n      swap2\n      pop\n      pop\n      jump\t// out\n        /* \"#utility.yul\":1841:1940   */\n    tag_45:\n        /* \"#utility.yul\":1893:1899   */\n      0x00\n        /* \"#utility.yul\":1927:1932   */\n      dup2\n        /* \"#utility.yul\":1921:1933   */\n      mload\n        /* \"#utility.yul\":1911:1933   */\n      swap1\n      pop\n        /* \"#utility.yul\":1841:1940   */\n      swap2\n      swap1\n      pop\n      jump\t// out\n        /* \"#utility.yul\":1946:2115   */\n    tag_47:\n        /* \"#utility.yul\":2030:2041   */\n      0x00\n        /* \"#utility.yul\":2064:2070   */\n      dup3\n        /* \"#utility.yul\":2059:2062   */\n      dup3\n        /* \"#utility.yul\":2052:2071   */\n      mstore\n        /* \"#utility.yul\":2104:2108   */\n      0x20\n        /* \"#utility.yul\":2099:2102   */\n      dup3\n        /* \"#utility.yul\":2095:2109   */\n      add\n        /* \"#utility.yul\":2080:2109   */\n      swap1\n      pop\n        /* \"#utility.yul\":1946:2115   */\n      swap3\n      swap2\n      pop\n      pop\n      jump\t// out\n        /* \"#utility.yul\":2121:2225   */\n    tag_37:\n        /* \"#utility.yul\":2166:2173   */\n      0x00\n        /* \"#utility.yul\":2195:2219   */\n      tag_67\n        /* \"#utility.yul\":2213:2218   */\n      dup3\n        /* \"#utility.yul\":2195:2219   */\n      tag_68\n      jump\t// in\n    tag_67:\n        /* \"#utility.yul\":2184:2219   */\n      swap1\n      pop\n        /* \"#utility.yul\":2121:2225   */\n      swap2\n      swap1\n      pop\n      jump\t// out\n        /* \"#utility.yul\":2231:2356   */\n    tag_69:\n        /* \"#utility.yul\":2275:2282   */\n      0x00\n        /* \"#utility.yul\":2304:2309   */\n      dup2\n        /* \"#utility.yul\":2293:2309   */\n      swap1\n      pop\n        /* \"#utility.yul\":2310:2350   */\n      tag_71\n        /* \"#utility.yul\":2344:2349   */\n      dup3\n        /* \"#utility.yul\":2310:2350   */\n      tag_72\n      jump\t// in\n    tag_71:\n        /* \"#utility.yul\":2231:2356   */\n      swap2\n      swap1\n      pop\n      jump\t// out\n        /* \"#utility.yul\":2362:2488   */\n    tag_68:\n        /* \"#utility.yul\":2399:2406   */\n      0x00\n        /* \"#utility.yul\":2439:2481   */\n      0xffffffffffffffffffffffffffffffffffffffff\n        /* \"#utility.yul\":2432:2437   */\n      dup3\n        /* \"#utility.yul\":2428:2482   */\n      and\n        /* \"#utility.yul\":2417:2482   */\n      swap1\n      pop\n        /* \"#utility.yul\":2362:2488   */\n      swap2\n      swap1\n      pop\n      jump\t// out\n        /* \"#utility.yul\":2494:2571   */\n    tag_55:\n        /* \"#utility.yul\":2531:2538   */\n      0x00\n        /* \"#utility.yul\":2560:2565   */\n      dup2\n        /* \"#utility.yul\":2549:2565   */\n      swap1\n      pop\n        /* \"#utility.yul\":2494:2571   */\n      swap2\n      swap1\n      pop\n      jump\t// out\n        /* \"#utility.yul\":2577:2702   */\n    tag_41:\n        /* \"#utility.yul\":2632:2641   */\n      0x00\n        /* \"#utility.yul\":2665:2696   */\n      tag_76\n        /* \"#utility.yul\":2690:2695   */\n      dup3\n        /* \"#utility.yul\":2665:2696   */\n      tag_69\n      jump\t// in\n    tag_76:\n        /* \"#utility.yul\":2652:2696   */\n      swap1\n      pop\n        /* \"#utility.yul\":2577:2702   */\n      swap2\n      swap1\n      pop\n      jump\t// out\n        /* \"#utility.yul\":2708:3015   */\n    tag_49:\n        /* \"#utility.yul\":2776:2777   */\n      0x00\n        /* \"#utility.yul\":2786:2899   */\n    tag_78:\n        /* \"#utility.yul\":2800:2806   */\n      dup4\n        /* \"#utility.yul\":2797:2798   */\n      dup2\n        /* \"#utility.yul\":2794:2807   */\n      lt\n        /* \"#utility.yul\":2786:2899   */\n      iszero\n      tag_80\n      jumpi\n        /* \"#utility.yul\":2885:2886   */\n      dup1\n        /* \"#utility.yul\":2880:2883   */\n      dup3\n        /* \"#utility.yul\":2876:2887   */\n      add\n        /* \"#utility.yul\":2870:2888   */\n      mload\n        /* \"#utility.yul\":2866:2867   */\n      dup2\n        /* \"#utility.yul\":2861:2864   */\n      dup5\n        /* \"#utility.yul\":2857:2868   */\n      add\n        /* \"#utility.yul\":2850:2889   */\n      mstore\n        /* \"#utility.yul\":2822:2824   */\n      0x20\n        /* \"#utility.yul\":2819:2820   */\n      dup2\n        /* \"#utility.yul\":2815:2825   */\n      add\n        /* \"#utility.yul\":2810:2825   */\n      swap1\n      pop\n        /* \"#utility.yul\":2786:2899   */\n      jump(tag_78)\n    tag_80:\n        /* \"#utility.yul\":2917:2923   */\n      dup4\n        /* \"#utility.yul\":2914:2915   */\n      dup2\n        /* \"#utility.yul\":2911:2924   */\n      gt\n        /* \"#utility.yul\":2908:3009   */\n      iszero\n      tag_81\n      jumpi\n        /* \"#utility.yul\":2997:2998   */\n      0x00\n        /* \"#utility.yul\":2988:2994   */\n      dup5\n        /* \"#utility.yul\":2983:2986   */\n      dup5\n        /* \"#utility.yul\":2979:2995   */\n      add\n        /* \"#utility.yul\":2972:2999   */\n      mstore\n        /* \"#utility.yul\":2908:3009   */\n    tag_81:\n        /* \"#utility.yul\":2757:3015   */\n      pop\n        /* \"#utility.yul\":2708:3015   */\n      pop\n      pop\n      pop\n      jump\t// out\n        /* \"#utility.yul\":3021:3341   */\n    tag_28:\n        /* \"#utility.yul\":3065:3071   */\n      0x00\n        /* \"#utility.yul\":3102:3103   */\n      0x02\n        /* \"#utility.yul\":3096:3100   */\n      dup3\n        /* \"#utility.yul\":3092:3104   */\n      div\n        /* \"#utility.yul\":3082:3104   */\n      swap1\n      pop\n        /* \"#utility.yul\":3149:3150   */\n      0x01\n        /* \"#utility.yul\":3143:3147   */\n      dup3\n        /* \"#utility.yul\":3139:3151   */\n      and\n        /* \"#utility.yul\":3170:3188   */\n      dup1\n        /* \"#utility.yul\":3160:3241   */\n      tag_83\n      jumpi\n        /* \"#utility.yul\":3226:3230   */\n      0x7f\n        /* \"#utility.yul\":3218:3224   */\n      dup3\n        /* \"#utility.yul\":3214:3231   */\n      and\n        /* \"#utility.yul\":3204:3231   */\n      swap2\n      pop\n        /* \"#utility.yul\":3160:3241   */\n    tag_83:\n        /* \"#utility.yul\":3288:3290   */\n      0x20\n        /* \"#utility.yul\":3280:3286   */\n      dup3\n        /* \"#utility.yul\":3277:3291   */\n      lt\n        /* \"#utility.yul\":3257:3275   */\n      dup2\n        /* \"#utility.yul\":3254:3292   */\n      eq\n        /* \"#utility.yul\":3251:3335   */\n      iszero\n      tag_84\n      jumpi\n        /* \"#utility.yul\":3307:3325   */\n      tag_85\n      tag_86\n      jump\t// in\n    tag_85:\n        /* \"#utility.yul\":3251:3335   */\n    tag_84:\n        /* \"#utility.yul\":3072:3341   */\n      pop\n        /* \"#utility.yul\":3021:3341   */\n      swap2\n      swap1\n      pop\n      jump\t// out\n        /* \"#utility.yul\":3347:3527   */\n    tag_87:\n        /* \"#utility.yul\":3395:3472   */\n      0x4e487b7100000000000000000000000000000000000000000000000000000000\n        /* \"#utility.yul\":3392:3393   */\n      0x00\n        /* \"#utility.yul\":3385:3473   */\n      mstore\n        /* \"#utility.yul\":3492:3496   */\n      0x21\n        /* \"#utility.yul\":3489:3490   */\n      0x04\n        /* \"#utility.yul\":3482:3497   */\n      mstore\n        /* \"#utility.yul\":3516:3520   */\n      0x24\n        /* \"#utility.yul\":3513:3514   */\n      0x00\n        /* \"#utility.yul\":3506:3521   */\n      revert\n        /* \"#utility.yul\":3533:3713   */\n    tag_86:\n        /* \"#utility.yul\":3581:3658   */\n      0x4e487b7100000000000000000000000000000000000000000000000000000000\n        /* \"#utility.yul\":3578:3579   */\n      0x00\n        /* \"#utility.yul\":3571:3659   */\n      mstore\n        /* \"#utility.yul\":3678:3682   */\n      0x22\n        /* \"#utility.yul\":3675:3676   */\n      0x04\n        /* \"#utility.yul\":3668:3683   */\n      mstore\n        /* \"#utility.yul\":3702:3706   */\n      0x24\n        /* \"#utility.yul\":3699:3700   */\n      0x00\n        /* \"#utility.yul\":3692:3707   */\n      revert\n        /* \"#utility.yul\":3719:3821   */\n    tag_51:\n        /* \"#utility.yul\":3760:3766   */\n      0x00\n        /* \"#utility.yul\":3811:3813   */\n      0x1f\n        /* \"#utility.yul\":3807:3814   */\n      not\n        /* \"#utility.yul\":3802:3804   */\n      0x1f\n        /* \"#utility.yul\":3795:3800   */\n      dup4\n        /* \"#utility.yul\":3791:3805   */\n      add\n        /* \"#utility.yul\":3787:3815   */\n      and\n        /* \"#utility.yul\":3777:3815   */\n      swap1\n      pop\n        /* \"#utility.yul\":3719:3821   */\n      swap2\n      swap1\n      pop\n      jump\t// out\n        /* \"#utility.yul\":3827:3939   */\n    tag_72:\n        /* \"#utility.yul\":3907:3908   */\n      0x04\n        /* \"#utility.yul\":3900:3905   */\n      dup2\n        /* \"#utility.yul\":3897:3909   */\n      lt\n        /* \"#utility.yul\":3887:3933   */\n      tag_92\n      jumpi\n        /* \"#utility.yul\":3913:3931   */\n      tag_93\n      tag_87\n      jump\t// in\n    tag_93:\n        /* \"#utility.yul\":3887:3933   */\n    tag_92:\n        /* \"#utility.yul\":3827:3939   */\n      pop\n      jump\t// out\n\n    auxdata: 0xa2646970667358221220ec2b5232452053b76e6ae568426056c4dce9de96f573934412fb12504bdcad3d64736f6c63430008070033\n}\n",
				"bytecode": {
					"linkReferences": {},
					"object": "60806040523480156200001157600080fd5b5060405162000a7038038062000a70833981810160405281019062000037919062000284565b83600090805190602001906200004f92919062000128565b50670de0b6b3a764000083600154620000699190620003d1565b620000759190620003d1565b50603c82620000859190620003d1565b620000956200012060201b60201c565b620000a1919062000374565b60028190555080600360006101000a81548173ffffffffffffffffffffffffffffffffffffffff021916908373ffffffffffffffffffffffffffffffffffffffff1602179055506000600360146101000a81548160ff0219169083600381111562000111576200011062000541565b5b02179055505050505062000627565b600042905090565b8280546200013690620004a6565b90600052602060002090601f0160209004810192826200015a5760008555620001a6565b82601f106200017557805160ff1916838001178555620001a6565b82800160010185558215620001a6579182015b82811115620001a557825182559160200191906001019062000188565b5b509050620001b59190620001b9565b5090565b5b80821115620001d4576000816000905550600101620001ba565b5090565b6000620001ef620001e9846200033e565b62000315565b9050828152602081018484840111156200020e576200020d620005d3565b5b6200021b84828562000470565b509392505050565b6000815190506200023481620005f3565b92915050565b600082601f830112620002525762000251620005ce565b5b815162000264848260208601620001d8565b91505092915050565b6000815190506200027e816200060d565b92915050565b60008060008060808587031215620002a157620002a0620005dd565b5b600085015167ffffffffffffffff811115620002c257620002c1620005d8565b5b620002d0878288016200023a565b9450506020620002e3878288016200026d565b9350506040620002f6878288016200026d565b9250506060620003098782880162000223565b91505092959194509250565b60006200032162000334565b90506200032f8282620004dc565b919050565b6000604051905090565b600067ffffffffffffffff8211156200035c576200035b6200059f565b5b6200036782620005e2565b9050602081019050919050565b6000620003818262000466565b91506200038e8362000466565b9250827fffffffffffffffffffffffffffffffffffffffffffffffffffffffffffffffff03821115620003c657620003c562000512565b5b828201905092915050565b6000620003de8262000466565b9150620003eb8362000466565b9250817fffffffffffffffffffffffffffffffffffffffffffffffffffffffffffffffff048311821515161562000427576200042662000512565b5b828202905092915050565b60006200043f8262000446565b9050919050565b600073ffffffffffffffffffffffffffffffffffffffff82169050919050565b6000819050919050565b60005b838110156200049057808201518184015260208101905062000473565b83811115620004a0576000848401525b50505050565b60006002820490506001821680620004bf57607f821691505b60208210811415620004d657620004d562000570565b5b50919050565b620004e782620005e2565b810181811067ffffffffffffffff821117156200050957620005086200059f565b5b80604052505050565b7f4e487b7100000000000000000000000000000000000000000000000000000000600052601160045260246000fd5b7f4e487b7100000000000000000000000000000000000000000000000000000000600052602160045260246000fd5b7f4e487b7100000000000000000000000000000000000000000000000000000000600052602260045260246000fd5b7f4e487b7100000000000000000000000000000000000000000000000000000000600052604160045260246000fd5b600080fd5b600080fd5b600080fd5b600080fd5b6000601f19601f8301169050919050565b620005fe8162000432565b81146200060a57600080fd5b50565b620006188162000466565b81146200062457600080fd5b50565b61043980620006376000396000f3fe608060405234801561001057600080fd5b50600436106100575760003560e01c806306fdde031461005c57806338af3eed1461007a578063796b23bb14610098578063953b8fb8146100b6578063c19d93fb146100d4575b600080fd5b6100646100f2565b6040516100719190610261565b60405180910390f35b610082610180565b60405161008f919061022b565b60405180910390f35b6100a06101a6565b6040516100ad9190610283565b60405180910390f35b6100be6101ac565b6040516100cb9190610283565b60405180910390f35b6100dc6101b2565b6040516100e99190610246565b60405180910390f35b600080546100ff9061034e565b80601f016020809104026020016040519081016040528092919081815260200182805461012b9061034e565b80156101785780601f1061014d57610100808354040283529160200191610178565b820191906000526020600020905b81548152906001019060200180831161015b57829003601f168201915b505050505081565b600360009054906101000a900473ffffffffffffffffffffffffffffffffffffffff1681565b60025481565b60015481565b600360149054906101000a900460ff1681565b6101ce816102ba565b82525050565b6101dd81610309565b82525050565b60006101ee8261029e565b6101f881856102a9565b935061020881856020860161031b565b610211816103de565b840191505092915050565b610225816102ff565b82525050565b600060208201905061024060008301846101c5565b92915050565b600060208201905061025b60008301846101d4565b92915050565b6000602082019050818103600083015261027b81846101e3565b905092915050565b6000602082019050610298600083018461021c565b92915050565b600081519050919050565b600082825260208201905092915050565b60006102c5826102df565b9050919050565b60008190506102da826103ef565b919050565b600073ffffffffffffffffffffffffffffffffffffffff82169050919050565b6000819050919050565b6000610314826102cc565b9050919050565b60005b8381101561033957808201518184015260208101905061031e565b83811115610348576000848401525b50505050565b6000600282049050600182168061036657607f821691505b6020821081141561037a576103796103af565b5b50919050565b7f4e487b7100000000000000000000000000000000000000000000000000000000600052602160045260246000fd5b7f4e487b7100000000000000000000000000000000000000000000000000000000600052602260045260246000fd5b6000601f19601f8301169050919050565b60048110610400576103ff610380565b5b5056fea2646970667358221220ec2b5232452053b76e6ae568426056c4dce9de96f573934412fb12504bdcad3d64736f6c63430008070033",
					"opcodes": "PUSH1 0x80 PUSH1 0x40 MSTORE CALLVALUE DUP1 ISZERO PUSH3 0x11 JUMPI PUSH1 0x0 DUP1 REVERT JUMPDEST POP PUSH1 0x40 MLOAD PUSH3 0xA70 CODESIZE SUB DUP1 PUSH3 0xA70 DUP4 CODECOPY DUP2 DUP2 ADD PUSH1 0x40 MSTORE DUP2 ADD SWAP1 PUSH3 0x37 SWAP2 SWAP1 PUSH3 0x284 JUMP JUMPDEST DUP4 PUSH1 0x0 SWAP1 DUP1 MLOAD SWAP1 PUSH1 0x20 ADD SWAP1 PUSH3 0x4F SWAP3 SWAP2 SWAP1 PUSH3 0x128 JUMP JUMPDEST POP PUSH8 0xDE0B6B3A7640000 DUP4 PUSH1 0x1 SLOAD PUSH3 0x69 SWAP2 SWAP1 PUSH3 0x3D1 JUMP JUMPDEST PUSH3 0x75 SWAP2 SWAP1 PUSH3 0x3D1 JUMP JUMPDEST POP PUSH1 0x3C DUP3 PUSH3 0x85 SWAP2 SWAP1 PUSH3 0x3D1 JUMP JUMPDEST PUSH3 0x95 PUSH3 0x120 PUSH1 0x20 SHL PUSH1 0x20 SHR JUMP JUMPDEST PUSH3 0xA1 SWAP2 SWAP1 PUSH3 0x374 JUMP JUMPDEST PUSH1 0x2 DUP2 SWAP1 SSTORE POP DUP1 PUSH1 0x3 PUSH1 0x0 PUSH2 0x100 EXP DUP2 SLOAD DUP2 PUSH20 0xFFFFFFFFFFFFFFFFFFFFFFFFFFFFFFFFFFFFFFFF MUL NOT AND SWAP1 DUP4 PUSH20 0xFFFFFFFFFFFFFFFFFFFFFFFFFFFFFFFFFFFFFFFF AND MUL OR SWAP1 SSTORE POP PUSH1 0x0 PUSH1 0x3 PUSH1 0x14 PUSH2 0x100 EXP DUP2 SLOAD DUP2 PUSH1 0xFF MUL NOT AND SWAP1 DUP4 PUSH1 0x3 DUP2 GT ISZERO PUSH3 0x111 JUMPI PUSH3 0x110 PUSH3 0x541 JUMP JUMPDEST JUMPDEST MUL OR SWAP1 SSTORE POP POP POP POP POP PUSH3 0x627 JUMP JUMPDEST PUSH1 0x0 TIMESTAMP SWAP1 POP SWAP1 JUMP JUMPDEST DUP3 DUP1 SLOAD PUSH3 0x136 SWAP1 PUSH3 0x4A6 JUMP JUMPDEST SWAP1 PUSH1 0x0 MSTORE PUSH1 0x20 PUSH1 0x0 KECCAK256 SWAP1 PUSH1 0x1F ADD PUSH1 0x20 SWAP1 DIV DUP2 ADD SWAP3 DUP3 PUSH3 0x15A JUMPI PUSH1 0x0 DUP6 SSTORE PUSH3 0x1A6 JUMP JUMPDEST DUP3 PUSH1 0x1F LT PUSH3 0x175 JUMPI DUP1 MLOAD PUSH1 0xFF NOT AND DUP4 DUP1 ADD OR DUP6 SSTORE PUSH3 0x1A6 JUMP JUMPDEST DUP3 DUP1 ADD PUSH1 0x1 ADD DUP6 SSTORE DUP3 ISZERO PUSH3 0x1A6 JUMPI SWAP2 DUP3 ADD JUMPDEST DUP3 DUP2 GT ISZERO PUSH3 0x1A5 JUMPI DUP3 MLOAD DUP3 SSTORE SWAP2 PUSH1 0x20 ADD SWAP2 SWAP1 PUSH1 0x1 ADD SWAP1 PUSH3 0x188 JUMP JUMPDEST JUMPDEST POP SWAP1 POP PUSH3 0x1B5 SWAP2 SWAP1 PUSH3 0x1B9 JUMP JUMPDEST POP SWAP1 JUMP JUMPDEST JUMPDEST DUP1 DUP3 GT ISZERO PUSH3 0x1D4 JUMPI PUSH1 0x0 DUP2 PUSH1 0x0 SWAP1 SSTORE POP PUSH1 0x1 ADD PUSH3 0x1BA JUMP JUMPDEST POP SWAP1 JUMP JUMPDEST PUSH1 0x0 PUSH3 0x1EF PUSH3 0x1E9 DUP5 PUSH3 0x33E JUMP JUMPDEST PUSH3 0x315 JUMP JUMPDEST SWAP1 POP DUP3 DUP2 MSTORE PUSH1 0x20 DUP2 ADD DUP5 DUP5 DUP5 ADD GT ISZERO PUSH3 0x20E JUMPI PUSH3 0x20D PUSH3 0x5D3 JUMP JUMPDEST JUMPDEST PUSH3 0x21B DUP5 DUP3 DUP6 PUSH3 0x470 JUMP JUMPDEST POP SWAP4 SWAP3 POP POP POP JUMP JUMPDEST PUSH1 0x0 DUP2 MLOAD SWAP1 POP PUSH3 0x234 DUP2 PUSH3 0x5F3 JUMP JUMPDEST SWAP3 SWAP2 POP POP JUMP JUMPDEST PUSH1 0x0 DUP3 PUSH1 0x1F DUP4 ADD SLT PUSH3 0x252 JUMPI PUSH3 0x251 PUSH3 0x5CE JUMP JUMPDEST JUMPDEST DUP2 MLOAD PUSH3 0x264 DUP5 DUP3 PUSH1 0x20 DUP7 ADD PUSH3 0x1D8 JUMP JUMPDEST SWAP2 POP POP SWAP3 SWAP2 POP POP JUMP JUMPDEST PUSH1 0x0 DUP2 MLOAD SWAP1 POP PUSH3 0x27E DUP2 PUSH3 0x60D JUMP JUMPDEST SWAP3 SWAP2 POP POP JUMP JUMPDEST PUSH1 0x0 DUP1 PUSH1 0x0 DUP1 PUSH1 0x80 DUP6 DUP8 SUB SLT ISZERO PUSH3 0x2A1 JUMPI PUSH3 0x2A0 PUSH3 0x5DD JUMP JUMPDEST JUMPDEST PUSH1 0x0 DUP6 ADD MLOAD PUSH8 0xFFFFFFFFFFFFFFFF DUP2 GT ISZERO PUSH3 0x2C2 JUMPI PUSH3 0x2C1 PUSH3 0x5D8 JUMP JUMPDEST JUMPDEST PUSH3 0x2D0 DUP8 DUP3 DUP9 ADD PUSH3 0x23A JUMP JUMPDEST SWAP5 POP POP PUSH1 0x20 PUSH3 0x2E3 DUP8 DUP3 DUP9 ADD PUSH3 0x26D JUMP JUMPDEST SWAP4 POP POP PUSH1 0x40 PUSH3 0x2F6 DUP8 DUP3 DUP9 ADD PUSH3 0x26D JUMP JUMPDEST SWAP3 POP POP PUSH1 0x60 PUSH3 0x309 DUP8 DUP3 DUP9 ADD PUSH3 0x223 JUMP JUMPDEST SWAP2 POP POP SWAP3 SWAP6 SWAP2 SWAP5 POP SWAP3 POP JUMP JUMPDEST PUSH1 0x0 PUSH3 0x321 PUSH3 0x334 JUMP JUMPDEST SWAP1 POP PUSH3 0x32F DUP3 DUP3 PUSH3 0x4DC JUMP JUMPDEST SWAP2 SWAP1 POP JUMP JUMPDEST PUSH1 0x0 PUSH1 0x40 MLOAD SWAP1 POP SWAP1 JUMP JUMPDEST PUSH1 0x0 PUSH8 0xFFFFFFFFFFFFFFFF DUP3 GT ISZERO PUSH3 0x35C JUMPI PUSH3 0x35B PUSH3 0x59F JUMP JUMPDEST JUMPDEST PUSH3 0x367 DUP3 PUSH3 0x5E2 JUMP JUMPDEST SWAP1 POP PUSH1 0x20 DUP2 ADD SWAP1 POP SWAP2 SWAP1 POP JUMP JUMPDEST PUSH1 0x0 PUSH3 0x381 DUP3 PUSH3 0x466 JUMP JUMPDEST SWAP2 POP PUSH3 0x38E DUP4 PUSH3 0x466 JUMP JUMPDEST SWAP3 POP DUP3 PUSH32 0xFFFFFFFFFFFFFFFFFFFFFFFFFFFFFFFFFFFFFFFFFFFFFFFFFFFFFFFFFFFFFFFF SUB DUP3 GT ISZERO PUSH3 0x3C6 JUMPI PUSH3 0x3C5 PUSH3 0x512 JUMP JUMPDEST JUMPDEST DUP3 DUP3 ADD SWAP1 POP SWAP3 SWAP2 POP POP JUMP JUMPDEST PUSH1 0x0 PUSH3 0x3DE DUP3 PUSH3 0x466 JUMP JUMPDEST SWAP2 POP PUSH3 0x3EB DUP4 PUSH3 0x466 JUMP JUMPDEST SWAP3 POP DUP2 PUSH32 0xFFFFFFFFFFFFFFFFFFFFFFFFFFFFFFFFFFFFFFFFFFFFFFFFFFFFFFFFFFFFFFFF DIV DUP4 GT DUP3 ISZERO ISZERO AND ISZERO PUSH3 0x427 JUMPI PUSH3 0x426 PUSH3 0x512 JUMP JUMPDEST JUMPDEST DUP3 DUP3 MUL SWAP1 POP SWAP3 SWAP2 POP POP JUMP JUMPDEST PUSH1 0x0 PUSH3 0x43F DUP3 PUSH3 0x446 JUMP JUMPDEST SWAP1 POP SWAP2 SWAP1 POP JUMP JUMPDEST PUSH1 0x0 PUSH20 0xFFFFFFFFFFFFFFFFFFFFFFFFFFFFFFFFFFFFFFFF DUP3 AND SWAP1 POP SWAP2 SWAP1 POP JUMP JUMPDEST PUSH1 0x0 DUP2 SWAP1 POP SWAP2 SWAP1 POP JUMP JUMPDEST PUSH1 0x0 JUMPDEST DUP4 DUP2 LT ISZERO PUSH3 0x490 JUMPI DUP1 DUP3 ADD MLOAD DUP2 DUP5 ADD MSTORE PUSH1 0x20 DUP2 ADD SWAP1 POP PUSH3 0x473 JUMP JUMPDEST DUP4 DUP2 GT ISZERO PUSH3 0x4A0 JUMPI PUSH1 0x0 DUP5 DUP5 ADD MSTORE JUMPDEST POP POP POP POP JUMP JUMPDEST PUSH1 0x0 PUSH1 0x2 DUP3 DIV SWAP1 POP PUSH1 0x1 DUP3 AND DUP1 PUSH3 0x4BF JUMPI PUSH1 0x7F DUP3 AND SWAP2 POP JUMPDEST PUSH1 0x20 DUP3 LT DUP2 EQ ISZERO PUSH3 0x4D6 JUMPI PUSH3 0x4D5 PUSH3 0x570 JUMP JUMPDEST JUMPDEST POP SWAP2 SWAP1 POP JUMP JUMPDEST PUSH3 0x4E7 DUP3 PUSH3 0x5E2 JUMP JUMPDEST DUP2 ADD DUP2 DUP2 LT PUSH8 0xFFFFFFFFFFFFFFFF DUP3 GT OR ISZERO PUSH3 0x509 JUMPI PUSH3 0x508 PUSH3 0x59F JUMP JUMPDEST JUMPDEST DUP1 PUSH1 0x40 MSTORE POP POP POP JUMP JUMPDEST PUSH32 0x4E487B7100000000000000000000000000000000000000000000000000000000 PUSH1 0x0 MSTORE PUSH1 0x11 PUSH1 0x4 MSTORE PUSH1 0x24 PUSH1 0x0 REVERT JUMPDEST PUSH32 0x4E487B7100000000000000000000000000000000000000000000000000000000 PUSH1 0x0 MSTORE PUSH1 0x21 PUSH1 0x4 MSTORE PUSH1 0x24 PUSH1 0x0 REVERT JUMPDEST PUSH32 0x4E487B7100000000000000000000000000000000000000000000000000000000 PUSH1 0x0 MSTORE PUSH1 0x22 PUSH1 0x4 MSTORE PUSH1 0x24 PUSH1 0x0 REVERT JUMPDEST PUSH32 0x4E487B7100000000000000000000000000000000000000000000000000000000 PUSH1 0x0 MSTORE PUSH1 0x41 PUSH1 0x4 MSTORE PUSH1 0x24 PUSH1 0x0 REVERT JUMPDEST PUSH1 0x0 DUP1 REVERT JUMPDEST PUSH1 0x0 DUP1 REVERT JUMPDEST PUSH1 0x0 DUP1 REVERT JUMPDEST PUSH1 0x0 DUP1 REVERT JUMPDEST PUSH1 0x0 PUSH1 0x1F NOT PUSH1 0x1F DUP4 ADD AND SWAP1 POP SWAP2 SWAP1 POP JUMP JUMPDEST PUSH3 0x5FE DUP2 PUSH3 0x432 JUMP JUMPDEST DUP2 EQ PUSH3 0x60A JUMPI PUSH1 0x0 DUP1 REVERT JUMPDEST POP JUMP JUMPDEST PUSH3 0x618 DUP2 PUSH3 0x466 JUMP JUMPDEST DUP2 EQ PUSH3 0x624 JUMPI PUSH1 0x0 DUP1 REVERT JUMPDEST POP JUMP JUMPDEST PUSH2 0x439 DUP1 PUSH3 0x637 PUSH1 0x0 CODECOPY PUSH1 0x0 RETURN INVALID PUSH1 0x80 PUSH1 0x40 MSTORE CALLVALUE DUP1 ISZERO PUSH2 0x10 JUMPI PUSH1 0x0 DUP1 REVERT JUMPDEST POP PUSH1 0x4 CALLDATASIZE LT PUSH2 0x57 JUMPI PUSH1 0x0 CALLDATALOAD PUSH1 0xE0 SHR DUP1 PUSH4 0x6FDDE03 EQ PUSH2 0x5C JUMPI DUP1 PUSH4 0x38AF3EED EQ PUSH2 0x7A JUMPI DUP1 PUSH4 0x796B23BB EQ PUSH2 0x98 JUMPI DUP1 PUSH4 0x953B8FB8 EQ PUSH2 0xB6 JUMPI DUP1 PUSH4 0xC19D93FB EQ PUSH2 0xD4 JUMPI JUMPDEST PUSH1 0x0 DUP1 REVERT JUMPDEST PUSH2 0x64 PUSH2 0xF2 JUMP JUMPDEST PUSH1 0x40 MLOAD PUSH2 0x71 SWAP2 SWAP1 PUSH2 0x261 JUMP JUMPDEST PUSH1 0x40 MLOAD DUP1 SWAP2 SUB SWAP1 RETURN JUMPDEST PUSH2 0x82 PUSH2 0x180 JUMP JUMPDEST PUSH1 0x40 MLOAD PUSH2 0x8F SWAP2 SWAP1 PUSH2 0x22B JUMP JUMPDEST PUSH1 0x40 MLOAD DUP1 SWAP2 SUB SWAP1 RETURN JUMPDEST PUSH2 0xA0 PUSH2 0x1A6 JUMP JUMPDEST PUSH1 0x40 MLOAD PUSH2 0xAD SWAP2 SWAP1 PUSH2 0x283 JUMP JUMPDEST PUSH1 0x40 MLOAD DUP1 SWAP2 SUB SWAP1 RETURN JUMPDEST PUSH2 0xBE PUSH2 0x1AC JUMP JUMPDEST PUSH1 0x40 MLOAD PUSH2 0xCB SWAP2 SWAP1 PUSH2 0x283 JUMP JUMPDEST PUSH1 0x40 MLOAD DUP1 SWAP2 SUB SWAP1 RETURN JUMPDEST PUSH2 0xDC PUSH2 0x1B2 JUMP JUMPDEST PUSH1 0x40 MLOAD PUSH2 0xE9 SWAP2 SWAP1 PUSH2 0x246 JUMP JUMPDEST PUSH1 0x40 MLOAD DUP1 SWAP2 SUB SWAP1 RETURN JUMPDEST PUSH1 0x0 DUP1 SLOAD PUSH2 0xFF SWAP1 PUSH2 0x34E JUMP JUMPDEST DUP1 PUSH1 0x1F ADD PUSH1 0x20 DUP1 SWAP2 DIV MUL PUSH1 0x20 ADD PUSH1 0x40 MLOAD SWAP1 DUP2 ADD PUSH1 0x40 MSTORE DUP1 SWAP3 SWAP2 SWAP1 DUP2 DUP2 MSTORE PUSH1 0x20 ADD DUP3 DUP1 SLOAD PUSH2 0x12B SWAP1 PUSH2 0x34E JUMP JUMPDEST DUP1 ISZERO PUSH2 0x178 JUMPI DUP1 PUSH1 0x1F LT PUSH2 0x14D JUMPI PUSH2 0x100 DUP1 DUP4 SLOAD DIV MUL DUP4 MSTORE SWAP2 PUSH1 0x20 ADD SWAP2 PUSH2 0x178 JUMP JUMPDEST DUP3 ADD SWAP2 SWAP1 PUSH1 0x0 MSTORE PUSH1 0x20 PUSH1 0x0 KECCAK256 SWAP1 JUMPDEST DUP2 SLOAD DUP2 MSTORE SWAP1 PUSH1 0x1 ADD SWAP1 PUSH1 0x20 ADD DUP1 DUP4 GT PUSH2 0x15B JUMPI DUP3 SWAP1 SUB PUSH1 0x1F AND DUP3 ADD SWAP2 JUMPDEST POP POP POP POP POP DUP2 JUMP JUMPDEST PUSH1 0x3 PUSH1 0x0 SWAP1 SLOAD SWAP1 PUSH2 0x100 EXP SWAP1 DIV PUSH20 0xFFFFFFFFFFFFFFFFFFFFFFFFFFFFFFFFFFFFFFFF AND DUP2 JUMP JUMPDEST PUSH1 0x2 SLOAD DUP2 JUMP JUMPDEST PUSH1 0x1 SLOAD DUP2 JUMP JUMPDEST PUSH1 0x3 PUSH1 0x14 SWAP1 SLOAD SWAP1 PUSH2 0x100 EXP SWAP1 DIV PUSH1 0xFF AND DUP2 JUMP JUMPDEST PUSH2 0x1CE DUP2 PUSH2 0x2BA JUMP JUMPDEST DUP3 MSTORE POP POP JUMP JUMPDEST PUSH2 0x1DD DUP2 PUSH2 0x309 JUMP JUMPDEST DUP3 MSTORE POP POP JUMP JUMPDEST PUSH1 0x0 PUSH2 0x1EE DUP3 PUSH2 0x29E JUMP JUMPDEST PUSH2 0x1F8 DUP2 DUP6 PUSH2 0x2A9 JUMP JUMPDEST SWAP4 POP PUSH2 0x208 DUP2 DUP6 PUSH1 0x20 DUP7 ADD PUSH2 0x31B JUMP JUMPDEST PUSH2 0x211 DUP2 PUSH2 0x3DE JUMP JUMPDEST DUP5 ADD SWAP2 POP POP SWAP3 SWAP2 POP POP JUMP JUMPDEST PUSH2 0x225 DUP2 PUSH2 0x2FF JUMP JUMPDEST DUP3 MSTORE POP POP JUMP JUMPDEST PUSH1 0x0 PUSH1 0x20 DUP3 ADD SWAP1 POP PUSH2 0x240 PUSH1 0x0 DUP4 ADD DUP5 PUSH2 0x1C5 JUMP JUMPDEST SWAP3 SWAP2 POP POP JUMP JUMPDEST PUSH1 0x0 PUSH1 0x20 DUP3 ADD SWAP1 POP PUSH2 0x25B PUSH1 0x0 DUP4 ADD DUP5 PUSH2 0x1D4 JUMP JUMPDEST SWAP3 SWAP2 POP POP JUMP JUMPDEST PUSH1 0x0 PUSH1 0x20 DUP3 ADD SWAP1 POP DUP2 DUP2 SUB PUSH1 0x0 DUP4 ADD MSTORE PUSH2 0x27B DUP2 DUP5 PUSH2 0x1E3 JUMP JUMPDEST SWAP1 POP SWAP3 SWAP2 POP POP JUMP JUMPDEST PUSH1 0x0 PUSH1 0x20 DUP3 ADD SWAP1 POP PUSH2 0x298 PUSH1 0x0 DUP4 ADD DUP5 PUSH2 0x21C JUMP JUMPDEST SWAP3 SWAP2 POP POP JUMP JUMPDEST PUSH1 0x0 DUP2 MLOAD SWAP1 POP SWAP2 SWAP1 POP JUMP JUMPDEST PUSH1 0x0 DUP3 DUP3 MSTORE PUSH1 0x20 DUP3 ADD SWAP1 POP SWAP3 SWAP2 POP POP JUMP JUMPDEST PUSH1 0x0 PUSH2 0x2C5 DUP3 PUSH2 0x2DF JUMP JUMPDEST SWAP1 POP SWAP2 SWAP1 POP JUMP JUMPDEST PUSH1 0x0 DUP2 SWAP1 POP PUSH2 0x2DA DUP3 PUSH2 0x3EF JUMP JUMPDEST SWAP2 SWAP1 POP JUMP JUMPDEST PUSH1 0x0 PUSH20 0xFFFFFFFFFFFFFFFFFFFFFFFFFFFFFFFFFFFFFFFF DUP3 AND SWAP1 POP SWAP2 SWAP1 POP JUMP JUMPDEST PUSH1 0x0 DUP2 SWAP1 POP SWAP2 SWAP1 POP JUMP JUMPDEST PUSH1 0x0 PUSH2 0x314 DUP3 PUSH2 0x2CC JUMP JUMPDEST SWAP1 POP SWAP2 SWAP1 POP JUMP JUMPDEST PUSH1 0x0 JUMPDEST DUP4 DUP2 LT ISZERO PUSH2 0x339 JUMPI DUP1 DUP3 ADD MLOAD DUP2 DUP5 ADD MSTORE PUSH1 0x20 DUP2 ADD SWAP1 POP PUSH2 0x31E JUMP JUMPDEST DUP4 DUP2 GT ISZERO PUSH2 0x348 JUMPI PUSH1 0x0 DUP5 DUP5 ADD MSTORE JUMPDEST POP POP POP POP JUMP JUMPDEST PUSH1 0x0 PUSH1 0x2 DUP3 DIV SWAP1 POP PUSH1 0x1 DUP3 AND DUP1 PUSH2 0x366 JUMPI PUSH1 0x7F DUP3 AND SWAP2 POP JUMPDEST PUSH1 0x20 DUP3 LT DUP2 EQ ISZERO PUSH2 0x37A JUMPI PUSH2 0x379 PUSH2 0x3AF JUMP JUMPDEST JUMPDEST POP SWAP2 SWAP1 POP JUMP JUMPDEST PUSH32 0x4E487B7100000000000000000000000000000000000000000000000000000000 PUSH1 0x0 MSTORE PUSH1 0x21 PUSH1 0x4 MSTORE PUSH1 0x24 PUSH1 0x0 REVERT JUMPDEST PUSH32 0x4E487B7100000000000000000000000000000000000000000000000000000000 PUSH1 0x0 MSTORE PUSH1 0x22 PUSH1 0x4 MSTORE PUSH1 0x24 PUSH1 0x0 REVERT JUMPDEST PUSH1 0x0 PUSH1 0x1F NOT PUSH1 0x1F DUP4 ADD AND SWAP1 POP SWAP2 SWAP1 POP JUMP JUMPDEST PUSH1 0x4 DUP2 LT PUSH2 0x400 JUMPI PUSH2 0x3FF PUSH2 0x380 JUMP JUMPDEST JUMPDEST POP JUMP INVALID LOG2 PUSH5 0x6970667358 0x22 SLT KECCAK256 0xEC 0x2B MSTORE ORIGIN GASLIMIT KECCAK256 MSTORE8 0xB7 PUSH15 0x6AE568426056C4DCE9DE96F5739344 SLT 0xFB SLT POP 0x4B 0xDC 0xAD RETURNDATASIZE PUSH5 0x736F6C6343 STOP ADDMOD SMOD STOP CALLER "
				},
				"gasEstimates": {
					"creation": {
						"codeDepositCost": "216200",
						"executionCost": "infinite",
						"totalCost": "infinite"
					},
					"external": {
						"beneficiary()": "2514",
						"fundingDeadline()": "2451",
						"name()": "infinite",
						"state()": "2676",
						"targetAmount()": "2473"
					},
					"internal": {
						"currentTime()": "infinite"
					}
				},
				"methodIdentifiers": {
					"beneficiary()": "38af3eed",
					"fundingDeadline()": "796b23bb",
					"name()": "06fdde03",
					"state()": "c19d93fb",
					"targetAmount()": "953b8fb8"
				}
			},
			"storageLayout": {
				"storage": [
					{
						"astId": 8,
						"contract": "crowdfunding_truffle/contracts/Crowdfunding.sol:Crowdfunding",
						"label": "name",
						"offset": 0,
						"slot": "0",
						"type": "t_string_storage"
					},
					{
						"astId": 10,
						"contract": "crowdfunding_truffle/contracts/Crowdfunding.sol:Crowdfunding",
						"label": "targetAmount",
						"offset": 0,
						"slot": "1",
						"type": "t_uint256"
					},
					{
						"astId": 12,
						"contract": "crowdfunding_truffle/contracts/Crowdfunding.sol:Crowdfunding",
						"label": "fundingDeadline",
						"offset": 0,
						"slot": "2",
						"type": "t_uint256"
					},
					{
						"astId": 14,
						"contract": "crowdfunding_truffle/contracts/Crowdfunding.sol:Crowdfunding",
						"label": "beneficiary",
						"offset": 0,
						"slot": "3",
						"type": "t_address_payable"
					},
					{
						"astId": 17,
						"contract": "crowdfunding_truffle/contracts/Crowdfunding.sol:Crowdfunding",
						"label": "state",
						"offset": 20,
						"slot": "3",
						"type": "t_enum(State)6"
					}
				],
				"types": {
					"t_address_payable": {
						"encoding": "inplace",
						"label": "address payable",
						"numberOfBytes": "20"
					},
					"t_enum(State)6": {
						"encoding": "inplace",
						"label": "enum Crowdfunding.State",
						"numberOfBytes": "1"
					},
					"t_string_storage": {
						"encoding": "bytes",
						"label": "string",
						"numberOfBytes": "32"
					},
					"t_uint256": {
						"encoding": "inplace",
						"label": "uint256",
						"numberOfBytes": "32"
					}
				}
			},
			"userdoc": {
				"kind": "user",
				"methods": {},
				"version": 1
			}
		}
	}
}