{
  "contractName": "Voter",
  "abi": [
    {
      "inputs": [
        {
          "internalType": "string[]",
          "name": "_options",
          "type": "string[]"
        }
      ],
      "stateMutability": "nonpayable",
      "type": "constructor"
    },
    {
      "inputs": [
        {
          "internalType": "uint256",
          "name": "",
          "type": "uint256"
        }
      ],
      "name": "options",
      "outputs": [
        {
          "internalType": "string",
          "name": "",
          "type": "string"
        }
      ],
      "stateMutability": "view",
      "type": "function",
      "constant": true
    },
    {
      "inputs": [
        {
          "internalType": "uint256",
          "name": "",
          "type": "uint256"
        }
      ],
      "name": "votes",
      "outputs": [
        {
          "internalType": "uint256",
          "name": "",
          "type": "uint256"
        }
      ],
      "stateMutability": "view",
      "type": "function",
      "constant": true
    },
    {
      "inputs": [
        {
          "internalType": "uint256",
          "name": "option",
          "type": "uint256"
        }
      ],
      "name": "vote",
      "outputs": [],
      "stateMutability": "nonpayable",
      "type": "function"
    },
    {
      "inputs": [
        {
          "internalType": "string",
          "name": "option",
          "type": "string"
        }
      ],
      "name": "vote",
      "outputs": [],
      "stateMutability": "nonpayable",
      "type": "function"
    },
    {
      "inputs": [],
      "name": "getOptions",
      "outputs": [
        {
          "internalType": "string[]",
          "name": "",
          "type": "string[]"
        }
      ],
      "stateMutability": "view",
      "type": "function",
      "constant": true
    },
    {
      "inputs": [],
      "name": "getVotes",
      "outputs": [
        {
          "internalType": "uint256[]",
          "name": "",
          "type": "uint256[]"
        }
      ],
      "stateMutability": "view",
      "type": "function",
      "constant": true
    }
  ],
  "bytecode": "0x60806040523480156200001157600080fd5b506040516200182738038062001827833981810160405281019062000037919062000589565b60006001805490501462000082576040517f08c379a000000000000000000000000000000000000000000000000000000000815260040162000079906200063b565b60405180910390fd5b80600190805190602001906200009a929190620001bb565b50805167ffffffffffffffff811115620000b957620000b862000324565b5b604051908082528060200260200182016040528015620000e85781602001602082028036833780820191505090505b5060009080519060200190620001009291906200021b565b5060005b600180549050811015620001b35760006040518060400160405280838152602001600115158152509050806003600184815481106200014857620001476200065d565b5b906000526020600020016040516200016191906200079f565b90815260200160405180910390206000820151816000015560208201518160010160006101000a81548160ff021916908315150217905550905050508080620001aa90620007f1565b91505062000104565b505062000aed565b82805482825590600052602060002090810192821562000208579160200282015b8281111562000207578251829081620001f6919062000a06565b5091602001919060010190620001dc565b5b5090506200021791906200026d565b5090565b8280548282559060005260206000209081019282156200025a579160200282015b82811115620002595782518255916020019190600101906200023c565b5b50905062000269919062000295565b5090565b5b80821115620002915760008181620002879190620002b4565b506001016200026e565b5090565b5b80821115620002b057600081600090555060010162000296565b5090565b508054620002c290620006bb565b6000825580601f10620002d65750620002f7565b601f016020900490600052602060002090810190620002f6919062000295565b5b50565b6000604051905090565b600080fd5b600080fd5b600080fd5b6000601f19601f8301169050919050565b7f4e487b7100000000000000000000000000000000000000000000000000000000600052604160045260246000fd5b6200035e8262000313565b810181811067ffffffffffffffff8211171562000380576200037f62000324565b5b80604052505050565b600062000395620002fa565b9050620003a3828262000353565b919050565b600067ffffffffffffffff821115620003c657620003c562000324565b5b602082029050602081019050919050565b600080fd5b600080fd5b600067ffffffffffffffff821115620003ff57620003fe62000324565b5b6200040a8262000313565b9050602081019050919050565b60005b83811015620004375780820151818401526020810190506200041a565b60008484015250505050565b60006200045a6200045484620003e1565b62000389565b905082815260208101848484011115620004795762000478620003dc565b5b6200048684828562000417565b509392505050565b600082601f830112620004a657620004a56200030e565b5b8151620004b884826020860162000443565b91505092915050565b6000620004d8620004d284620003a8565b62000389565b90508083825260208201905060208402830185811115620004fe57620004fd620003d7565b5b835b818110156200054c57805167ffffffffffffffff8111156200052757620005266200030e565b5b8086016200053689826200048e565b8552602085019450505060208101905062000500565b5050509392505050565b600082601f8301126200056e576200056d6200030e565b5b815162000580848260208601620004c1565b91505092915050565b600060208284031215620005a257620005a162000304565b5b600082015167ffffffffffffffff811115620005c357620005c262000309565b5b620005d18482850162000556565b91505092915050565b600082825260208201905092915050565b7f6f7074696f6e7320726571756972656400000000000000000000000000000000600082015250565b600062000623601083620005da565b91506200063082620005eb565b602082019050919050565b60006020820190508181036000830152620006568162000614565b9050919050565b7f4e487b7100000000000000000000000000000000000000000000000000000000600052603260045260246000fd5b7f4e487b7100000000000000000000000000000000000000000000000000000000600052602260045260246000fd5b60006002820490506001821680620006d457607f821691505b602082108103620006ea57620006e96200068c565b5b50919050565b600081905092915050565b60008190508160005260206000209050919050565b600081546200071f81620006bb565b6200072b8186620006f0565b945060018216600081146200074957600181146200075f5762000796565b60ff198316865281151582028601935062000796565b6200076a85620006fb565b60005b838110156200078e578154818901526001820191506020810190506200076d565b838801955050505b50505092915050565b6000620007ad828462000710565b915081905092915050565b7f4e487b7100000000000000000000000000000000000000000000000000000000600052601160045260246000fd5b6000819050919050565b6000620007fe82620007e7565b91507fffffffffffffffffffffffffffffffffffffffffffffffffffffffffffffffff8203620008335762000832620007b8565b5b600182019050919050565b600081519050919050565b60006020601f8301049050919050565b600082821b905092915050565b600060088302620008987fffffffffffffffffffffffffffffffffffffffffffffffffffffffffffffffff8262000859565b620008a4868362000859565b95508019841693508086168417925050509392505050565b6000819050919050565b6000620008e7620008e1620008db84620007e7565b620008bc565b620007e7565b9050919050565b6000819050919050565b6200090383620008c6565b6200091b6200091282620008ee565b84845462000866565b825550505050565b600090565b6200093262000923565b6200093f818484620008f8565b505050565b5b8181101562000967576200095b60008262000928565b60018101905062000945565b5050565b601f821115620009b6576200098081620006fb565b6200098b8462000849565b810160208510156200099b578190505b620009b3620009aa8562000849565b83018262000944565b50505b505050565b600082821c905092915050565b6000620009db60001984600802620009bb565b1980831691505092915050565b6000620009f68383620009c8565b9150826002028217905092915050565b62000a11826200083e565b67ffffffffffffffff81111562000a2d5762000a2c62000324565b5b62000a398254620006bb565b62000a468282856200096b565b600060209050601f83116001811462000a7e576000841562000a69578287015190505b62000a758582620009e8565b86555062000ae5565b601f19841662000a8e86620006fb565b60005b8281101562000ab85784890151825560018201915060208501945060208101905062000a91565b8683101562000ad8578489015162000ad4601f891682620009c8565b8355505b6001600288020188555050505b505050505050565b610d2a8062000afd6000396000f3fe608060405234801561001057600080fd5b50600436106100625760003560e01c80630121b93f146100675780630dc9601514610083578063409e2205146100a15780635df81330146100d1578063cc2ee19614610101578063fc36e15b1461011f575b600080fd5b610081600480360381019061007c9190610642565b61013b565b005b61008b61021b565b604051610098919061072d565b60405180910390f35b6100bb60048036038101906100b69190610642565b610273565b6040516100c891906107df565b60405180910390f35b6100eb60048036038101906100e69190610642565b61031f565b6040516100f89190610810565b60405180910390f35b610109610343565b6040516101169190610937565b60405180910390f35b61013960048036038101906101349190610a8e565b61041c565b005b6001805490508110610182576040517f08c379a000000000000000000000000000000000000000000000000000000000815260040161017990610b23565b60405180910390fd5b600260003373ffffffffffffffffffffffffffffffffffffffff1673ffffffffffffffffffffffffffffffffffffffff16815260200190815260200160002060009054906101000a900460ff161561020f576040517f08c379a000000000000000000000000000000000000000000000000000000000815260040161020690610b8f565b60405180910390fd5b61021881610550565b50565b6060600080548060200260200160405190810160405280929190818152602001828054801561026957602002820191906000526020600020905b815481526020019060010190808311610255575b5050505050905090565b6001818154811061028357600080fd5b90600052602060002001600091509050805461029e90610bde565b80601f01602080910402602001604051908101604052809291908181526020018280546102ca90610bde565b80156103175780601f106102ec57610100808354040283529160200191610317565b820191906000526020600020905b8154815290600101906020018083116102fa57829003601f168201915b505050505081565b6000818154811061032f57600080fd5b906000526020600020016000915090505481565b60606001805480602002602001604051908101604052809291908181526020016000905b8282101561041357838290600052602060002001805461038690610bde565b80601f01602080910402602001604051908101604052809291908181526020018280546103b290610bde565b80156103ff5780601f106103d4576101008083540402835291602001916103ff565b820191906000526020600020905b8154815290600101906020018083116103e257829003601f168201915b505050505081526020019060010190610367565b50505050905090565b600260003373ffffffffffffffffffffffffffffffffffffffff1673ffffffffffffffffffffffffffffffffffffffff16815260200190815260200160002060009054906101000a900460ff16156104a9576040517f08c379a00000000000000000000000000000000000000000000000000000000081526004016104a090610b8f565b60405180910390fd5b60006003826040516104bb9190610c4b565b9081526020016040518091039020604051806040016040529081600082015481526020016001820160009054906101000a900460ff1615151515815250509050806020015161053f576040517f08c379a000000000000000000000000000000000000000000000000000000000815260040161053690610b23565b60405180910390fd5b61054c8160000151610550565b5050565b6001600260003373ffffffffffffffffffffffffffffffffffffffff1673ffffffffffffffffffffffffffffffffffffffff16815260200190815260200160002060006101000a81548160ff0219169083151502179055506001600082815481106105be576105bd610c62565b5b90600052602060002001546105d39190610cc0565b600082815481106105e7576105e6610c62565b5b906000526020600020018190555050565b6000604051905090565b600080fd5b600080fd5b6000819050919050565b61061f8161060c565b811461062a57600080fd5b50565b60008135905061063c81610616565b92915050565b60006020828403121561065857610657610602565b5b60006106668482850161062d565b91505092915050565b600081519050919050565b600082825260208201905092915050565b6000819050602082019050919050565b6106a48161060c565b82525050565b60006106b6838361069b565b60208301905092915050565b6000602082019050919050565b60006106da8261066f565b6106e4818561067a565b93506106ef8361068b565b8060005b8381101561072057815161070788826106aa565b9750610712836106c2565b9250506001810190506106f3565b5085935050505092915050565b6000602082019050818103600083015261074781846106cf565b905092915050565b600081519050919050565b600082825260208201905092915050565b60005b8381101561078957808201518184015260208101905061076e565b60008484015250505050565b6000601f19601f8301169050919050565b60006107b18261074f565b6107bb818561075a565b93506107cb81856020860161076b565b6107d481610795565b840191505092915050565b600060208201905081810360008301526107f981846107a6565b905092915050565b61080a8161060c565b82525050565b60006020820190506108256000830184610801565b92915050565b600081519050919050565b600082825260208201905092915050565b6000819050602082019050919050565b600082825260208201905092915050565b60006108738261074f565b61087d8185610857565b935061088d81856020860161076b565b61089681610795565b840191505092915050565b60006108ad8383610868565b905092915050565b6000602082019050919050565b60006108cd8261082b565b6108d78185610836565b9350836020820285016108e985610847565b8060005b85811015610925578484038952815161090685826108a1565b9450610911836108b5565b925060208a019950506001810190506108ed565b50829750879550505050505092915050565b6000602082019050818103600083015261095181846108c2565b905092915050565b600080fd5b600080fd5b7f4e487b7100000000000000000000000000000000000000000000000000000000600052604160045260246000fd5b61099b82610795565b810181811067ffffffffffffffff821117156109ba576109b9610963565b5b80604052505050565b60006109cd6105f8565b90506109d98282610992565b919050565b600067ffffffffffffffff8211156109f9576109f8610963565b5b610a0282610795565b9050602081019050919050565b82818337600083830152505050565b6000610a31610a2c846109de565b6109c3565b905082815260208101848484011115610a4d57610a4c61095e565b5b610a58848285610a0f565b509392505050565b600082601f830112610a7557610a74610959565b5b8135610a85848260208601610a1e565b91505092915050565b600060208284031215610aa457610aa3610602565b5b600082013567ffffffffffffffff811115610ac257610ac1610607565b5b610ace84828501610a60565b91505092915050565b7f496e76616c6964206f7074696f6e000000000000000000000000000000000000600082015250565b6000610b0d600e8361075a565b9150610b1882610ad7565b602082019050919050565b60006020820190508181036000830152610b3c81610b00565b9050919050565b7f416c726561647920766f74656400000000000000000000000000000000000000600082015250565b6000610b79600d8361075a565b9150610b8482610b43565b602082019050919050565b60006020820190508181036000830152610ba881610b6c565b9050919050565b7f4e487b7100000000000000000000000000000000000000000000000000000000600052602260045260246000fd5b60006002820490506001821680610bf657607f821691505b602082108103610c0957610c08610baf565b5b50919050565b600081905092915050565b6000610c258261074f565b610c2f8185610c0f565b9350610c3f81856020860161076b565b80840191505092915050565b6000610c578284610c1a565b915081905092915050565b7f4e487b7100000000000000000000000000000000000000000000000000000000600052603260045260246000fd5b7f4e487b7100000000000000000000000000000000000000000000000000000000600052601160045260246000fd5b6000610ccb8261060c565b9150610cd68361060c565b9250828201905080821115610cee57610ced610c91565b5b9291505056fea26469706673582212201e2b40e6a59af545c33c532ee96e85074e3731916c8240b4af11432a07af92c164736f6c63430008110033",
  "immutableReferences": {},
  "source": "// SPDX-License-Identifier: UNLICENSED\r\npragma solidity ^0.8.0.0;\r\n\r\ncontract Voter {\r\n    \r\n    struct OptionPos {\r\n        uint pos;\r\n        bool exists;\r\n    }\r\n\r\n    uint[] public votes;\r\n    string[] public options;\r\n    mapping(address => bool) private hasVoted;\r\n    mapping(string => OptionPos) private posOfOption;\r\n\r\n    constructor(string[] memory _options) {\r\n        require(options.length == 0, \"options required\");\r\n        options = _options;\r\n        votes = new uint[](_options.length);\r\n\r\n        for(uint i = 0; i < options.length; i++) {\r\n            OptionPos memory option = OptionPos({pos: i, exists: true});\r\n            posOfOption[options[i]] = option;\r\n        }\r\n    }\r\n\r\n    function vote(uint option) public {\r\n        require(option < options.length, \"Invalid option\");\r\n        require(!hasVoted[msg.sender], \"Already voted\");\r\n        recordVote(option);\r\n    }\r\n\r\n    function vote(string memory option) public {\r\n       require(!hasVoted[msg.sender], \"Already voted\");\r\n       OptionPos memory optionPos = posOfOption[option];\r\n       require(optionPos.exists, \"Invalid option\");\r\n       recordVote(optionPos.pos);\r\n    }\r\n\r\n    function stringEqual(string memory a, string memory b) private pure returns (bool) {\r\n        return keccak256(bytes(a)) == keccak256(bytes(b));\r\n    }\r\n\r\n    function recordVote(uint option) private {\r\n        hasVoted[msg.sender] = true;\r\n        votes[option] = votes[option] + 1;\r\n    }\r\n    \r\n    function getOptions() public view returns (string[] memory) {\r\n        return options;\r\n    }\r\n\r\n    function getVotes() public view returns (uint[] memory) {\r\n        return votes;\r\n    }\r\n}",
  "sourcePath": "C:\\github\\dennisdevetter\\solidity_helloworld\\voting_truffle\\contracts\\Voter.sol",
  "compiler": {
    "name": "solc",
    "version": "0.8.17+commit.8df45f5f.Emscripten.clang"
  },
  "schemaVersion": "3.4.11",
  "updatedAt": "2023-01-14T15:43:02.965Z",
  "networkType": "ethereum",
  "devdoc": {
    "kind": "dev",
    "methods": {},
    "version": 1
  },
  "userdoc": {
    "kind": "user",
    "methods": {},
    "version": 1
  }
}